{
  "_format": "hh-sol-artifact-1",
  "contractName": "XiroNFT2",
  "sourceName": "contracts/XiroNFT2.sol",
  "abi": [
    {
      "anonymous": false,
      "inputs": [
        {
          "indexed": false,
          "internalType": "address",
          "name": "previousAdmin",
          "type": "address"
        },
        {
          "indexed": false,
          "internalType": "address",
          "name": "newAdmin",
          "type": "address"
        }
      ],
      "name": "AdminChanged",
      "type": "event"
    },
    {
      "anonymous": false,
      "inputs": [
        {
          "indexed": true,
          "internalType": "address",
          "name": "owner",
          "type": "address"
        },
        {
          "indexed": true,
          "internalType": "address",
          "name": "approved",
          "type": "address"
        },
        {
          "indexed": true,
          "internalType": "uint256",
          "name": "tokenId",
          "type": "uint256"
        }
      ],
      "name": "Approval",
      "type": "event"
    },
    {
      "anonymous": false,
      "inputs": [
        {
          "indexed": true,
          "internalType": "address",
          "name": "owner",
          "type": "address"
        },
        {
          "indexed": true,
          "internalType": "address",
          "name": "operator",
          "type": "address"
        },
        {
          "indexed": false,
          "internalType": "bool",
          "name": "approved",
          "type": "bool"
        }
      ],
      "name": "ApprovalForAll",
      "type": "event"
    },
    {
      "anonymous": false,
      "inputs": [
        {
          "indexed": true,
          "internalType": "address",
          "name": "beacon",
          "type": "address"
        }
      ],
      "name": "BeaconUpgraded",
      "type": "event"
    },
    {
      "anonymous": false,
      "inputs": [
        {
          "indexed": false,
          "internalType": "uint8",
          "name": "version",
          "type": "uint8"
        }
      ],
      "name": "Initialized",
      "type": "event"
    },
    {
      "anonymous": false,
      "inputs": [
        {
          "indexed": false,
          "internalType": "uint256",
          "name": "val",
          "type": "uint256"
        }
      ],
      "name": "MsgVal",
      "type": "event"
    },
    {
      "anonymous": false,
      "inputs": [
        {
          "indexed": false,
          "internalType": "uint256",
          "name": "tokenId",
          "type": "uint256"
        },
        {
          "indexed": false,
          "internalType": "uint256",
          "name": "salePrice",
          "type": "uint256"
        }
      ],
      "name": "NftListed",
      "type": "event"
    },
    {
      "anonymous": false,
      "inputs": [
        {
          "indexed": true,
          "internalType": "address",
          "name": "previousOwner",
          "type": "address"
        },
        {
          "indexed": true,
          "internalType": "address",
          "name": "newOwner",
          "type": "address"
        }
      ],
      "name": "OwnershipTransferred",
      "type": "event"
    },
    {
      "anonymous": false,
      "inputs": [
        {
          "indexed": true,
          "internalType": "address",
          "name": "from",
          "type": "address"
        },
        {
          "indexed": true,
          "internalType": "address",
          "name": "to",
          "type": "address"
        },
        {
          "indexed": true,
          "internalType": "uint256",
          "name": "tokenId",
          "type": "uint256"
        }
      ],
      "name": "Transfer",
      "type": "event"
    },
    {
      "anonymous": false,
      "inputs": [
        {
          "indexed": true,
          "internalType": "address",
          "name": "implementation",
          "type": "address"
        }
      ],
      "name": "Upgraded",
      "type": "event"
    },
    {
      "inputs": [],
      "name": "MAX_SUPPLY",
      "outputs": [
        {
          "internalType": "uint256",
          "name": "",
          "type": "uint256"
        }
      ],
      "stateMutability": "view",
      "type": "function"
    },
    {
      "inputs": [
        {
          "internalType": "address",
          "name": "to",
          "type": "address"
        },
        {
          "internalType": "uint256",
          "name": "tokenId",
          "type": "uint256"
        }
      ],
      "name": "approve",
      "outputs": [],
      "stateMutability": "nonpayable",
      "type": "function"
    },
    {
      "inputs": [
        {
          "internalType": "address",
          "name": "owner",
          "type": "address"
        }
      ],
      "name": "balanceOf",
      "outputs": [
        {
          "internalType": "uint256",
          "name": "",
          "type": "uint256"
        }
      ],
      "stateMutability": "view",
      "type": "function"
    },
    {
      "inputs": [
        {
          "internalType": "uint256",
          "name": "_tokenId",
          "type": "uint256"
        }
      ],
      "name": "buyNFT",
      "outputs": [],
      "stateMutability": "payable",
      "type": "function"
    },
    {
      "inputs": [],
      "name": "contractURI",
      "outputs": [
        {
          "internalType": "string",
          "name": "",
          "type": "string"
        }
      ],
      "stateMutability": "view",
      "type": "function"
    },
    {
      "inputs": [
        {
          "internalType": "uint256",
          "name": "_tokenId",
          "type": "uint256"
        }
      ],
      "name": "delistNFT",
      "outputs": [],
      "stateMutability": "nonpayable",
      "type": "function"
    },
    {
      "inputs": [
        {
          "internalType": "uint256",
          "name": "tokenId",
          "type": "uint256"
        }
      ],
      "name": "getApproved",
      "outputs": [
        {
          "internalType": "address",
          "name": "",
          "type": "address"
        }
      ],
      "stateMutability": "view",
      "type": "function"
    },
    {
      "inputs": [],
      "name": "initialize",
      "outputs": [],
      "stateMutability": "nonpayable",
      "type": "function"
    },
    {
      "inputs": [
        {
          "internalType": "address",
          "name": "owner",
          "type": "address"
        },
        {
          "internalType": "address",
          "name": "operator",
          "type": "address"
        }
      ],
      "name": "isApprovedForAll",
      "outputs": [
        {
          "internalType": "bool",
          "name": "",
          "type": "bool"
        }
      ],
      "stateMutability": "view",
      "type": "function"
    },
    {
      "inputs": [
        {
          "internalType": "uint256",
          "name": "_tokenId",
          "type": "uint256"
        },
        {
          "internalType": "uint256",
          "name": "_salePrice",
          "type": "uint256"
        }
      ],
      "name": "listNFT",
      "outputs": [],
      "stateMutability": "nonpayable",
      "type": "function"
    },
    {
      "inputs": [],
      "name": "mint",
      "outputs": [],
      "stateMutability": "payable",
      "type": "function"
    },
    {
      "inputs": [],
      "name": "name",
      "outputs": [
        {
          "internalType": "string",
          "name": "",
          "type": "string"
        }
      ],
      "stateMutability": "view",
      "type": "function"
    },
    {
      "inputs": [
        {
          "internalType": "uint256",
          "name": "",
          "type": "uint256"
        }
      ],
      "name": "onSale",
      "outputs": [
        {
          "internalType": "bool",
          "name": "",
          "type": "bool"
        }
      ],
      "stateMutability": "view",
      "type": "function"
    },
    {
      "inputs": [],
      "name": "owner",
      "outputs": [
        {
          "internalType": "address",
          "name": "",
          "type": "address"
        }
      ],
      "stateMutability": "view",
      "type": "function"
    },
    {
      "inputs": [
        {
          "internalType": "uint256",
          "name": "tokenId",
          "type": "uint256"
        }
      ],
      "name": "ownerOf",
      "outputs": [
        {
          "internalType": "address",
          "name": "",
          "type": "address"
        }
      ],
      "stateMutability": "view",
      "type": "function"
    },
    {
      "inputs": [],
      "name": "price",
      "outputs": [
        {
          "internalType": "uint256",
          "name": "",
          "type": "uint256"
        }
      ],
      "stateMutability": "view",
      "type": "function"
    },
    {
      "inputs": [],
      "name": "proxiableUUID",
      "outputs": [
        {
          "internalType": "bytes32",
          "name": "",
          "type": "bytes32"
        }
      ],
      "stateMutability": "view",
      "type": "function"
    },
    {
      "inputs": [],
      "name": "renounceOwnership",
      "outputs": [],
      "stateMutability": "nonpayable",
      "type": "function"
    },
    {
      "inputs": [
        {
          "internalType": "address",
          "name": "from",
          "type": "address"
        },
        {
          "internalType": "address",
          "name": "to",
          "type": "address"
        },
        {
          "internalType": "uint256",
          "name": "tokenId",
          "type": "uint256"
        }
      ],
      "name": "safeTransferFrom",
      "outputs": [],
      "stateMutability": "nonpayable",
      "type": "function"
    },
    {
      "inputs": [
        {
          "internalType": "address",
          "name": "from",
          "type": "address"
        },
        {
          "internalType": "address",
          "name": "to",
          "type": "address"
        },
        {
          "internalType": "uint256",
          "name": "tokenId",
          "type": "uint256"
        },
        {
          "internalType": "bytes",
          "name": "data",
          "type": "bytes"
        }
      ],
      "name": "safeTransferFrom",
      "outputs": [],
      "stateMutability": "nonpayable",
      "type": "function"
    },
    {
      "inputs": [
        {
          "internalType": "uint256",
          "name": "",
          "type": "uint256"
        }
      ],
      "name": "salePrice",
      "outputs": [
        {
          "internalType": "uint256",
          "name": "",
          "type": "uint256"
        }
      ],
      "stateMutability": "view",
      "type": "function"
    },
    {
      "inputs": [
        {
          "internalType": "address",
          "name": "operator",
          "type": "address"
        },
        {
          "internalType": "bool",
          "name": "approved",
          "type": "bool"
        }
      ],
      "name": "setApprovalForAll",
      "outputs": [],
      "stateMutability": "nonpayable",
      "type": "function"
    },
    {
      "inputs": [
        {
          "internalType": "string",
          "name": "newBaseURI",
          "type": "string"
        }
      ],
      "name": "setBaseURI",
      "outputs": [],
      "stateMutability": "nonpayable",
      "type": "function"
    },
    {
      "inputs": [
        {
          "internalType": "string",
          "name": "newContractURI",
          "type": "string"
        }
      ],
      "name": "setContractURI",
      "outputs": [],
      "stateMutability": "nonpayable",
      "type": "function"
    },
    {
      "inputs": [
        {
          "internalType": "uint256",
          "name": "newPrice",
          "type": "uint256"
        }
      ],
      "name": "setPrice",
      "outputs": [],
      "stateMutability": "nonpayable",
      "type": "function"
    },
    {
      "inputs": [
        {
          "internalType": "bytes4",
          "name": "interfaceId",
          "type": "bytes4"
        }
      ],
      "name": "supportsInterface",
      "outputs": [
        {
          "internalType": "bool",
          "name": "",
          "type": "bool"
        }
      ],
      "stateMutability": "view",
      "type": "function"
    },
    {
      "inputs": [],
      "name": "symbol",
      "outputs": [
        {
          "internalType": "string",
          "name": "",
          "type": "string"
        }
      ],
      "stateMutability": "view",
      "type": "function"
    },
    {
      "inputs": [],
      "name": "tokenId",
      "outputs": [
        {
          "internalType": "uint256",
          "name": "",
          "type": "uint256"
        }
      ],
      "stateMutability": "view",
      "type": "function"
    },
    {
      "inputs": [
        {
          "internalType": "uint256",
          "name": "_tokenId",
          "type": "uint256"
        }
      ],
      "name": "tokenURI",
      "outputs": [
        {
          "internalType": "string",
          "name": "",
          "type": "string"
        }
      ],
      "stateMutability": "view",
      "type": "function"
    },
    {
      "inputs": [
        {
          "internalType": "address",
          "name": "from",
          "type": "address"
        },
        {
          "internalType": "address",
          "name": "to",
          "type": "address"
        },
        {
          "internalType": "uint256",
          "name": "tokenId",
          "type": "uint256"
        }
      ],
      "name": "transferFrom",
      "outputs": [],
      "stateMutability": "nonpayable",
      "type": "function"
    },
    {
      "inputs": [
        {
          "internalType": "address",
          "name": "newOwner",
          "type": "address"
        }
      ],
      "name": "transferOwnership",
      "outputs": [],
      "stateMutability": "nonpayable",
      "type": "function"
    },
    {
      "inputs": [
        {
          "internalType": "address",
          "name": "newImplementation",
          "type": "address"
        }
      ],
      "name": "upgradeTo",
      "outputs": [],
      "stateMutability": "nonpayable",
      "type": "function"
    },
    {
      "inputs": [
        {
          "internalType": "address",
          "name": "newImplementation",
          "type": "address"
        },
        {
          "internalType": "bytes",
          "name": "data",
          "type": "bytes"
        }
      ],
      "name": "upgradeToAndCall",
      "outputs": [],
      "stateMutability": "payable",
      "type": "function"
    },
    {
      "inputs": [],
      "name": "withdrawAll",
      "outputs": [],
      "stateMutability": "nonpayable",
      "type": "function"
    }
  ],
  "bytecode": "0x60a06040523073ffffffffffffffffffffffffffffffffffffffff1660809073ffffffffffffffffffffffffffffffffffffffff1660601b81525034801561004657600080fd5b5060805160601c614d6361008160003960008181610c0201528181610c9101528181610dd101528181610e60015261113a0152614d636000f3fe6080604052600436106101f95760003560e01c80638129fc1c1161010d578063a22cb465116100a0578063cb917b9c1161006f578063cb917b9c146106ba578063e8a3d485146106e3578063e985e9c51461070e578063edf85f511461074b578063f2fde38b14610788576101f9565b8063a22cb465146105ee578063b43a76f114610617578063b88d4fde14610654578063c87b56dd1461067d576101f9565b8063938e3d7b116100dc578063938e3d7b1461054657806394383f141461056f57806395d89b4114610598578063a035b1fe146105c3576101f9565b80638129fc1c146104c4578063853828b6146104db5780638da5cb5b146104f257806391b7f5ed1461051d576101f9565b80633659cfe61161019057806352d1902d1161015f57806352d1902d146103df57806355f804b31461040a5780636352211e1461043357806370a0823114610470578063715018a6146104ad576101f9565b80633659cfe61461035557806342842e0e1461037e5780634f1ef286146103a757806351ed8288146103c3576101f9565b80631249c58b116101cc5780631249c58b146102cc57806317d70f7c146102d657806323b872dd1461030157806332cb6b0c1461032a576101f9565b806301ffc9a7146101fe57806306fdde031461023b578063081812fc14610266578063095ea7b3146102a3575b600080fd5b34801561020a57600080fd5b50610225600480360381019061022091906134ec565b6107b1565b6040516102329190613c24565b60405180910390f35b34801561024757600080fd5b50610250610893565b60405161025d9190613c75565b60405180910390f35b34801561027257600080fd5b5061028d6004803603810190610288919061357f565b610925565b60405161029a9190613b86565b60405180910390f35b3480156102af57600080fd5b506102ca60048036038101906102c59190613487565b61096b565b005b6102d4610a83565b005b3480156102e257600080fd5b506102eb610b94565b6040516102f89190614057565b60405180910390f35b34801561030d57600080fd5b506103286004803603810190610323919061332d565b610b9b565b005b34801561033657600080fd5b5061033f610bfb565b60405161034c9190614057565b60405180910390f35b34801561036157600080fd5b5061037c600480360381019061037791906132c8565b610c00565b005b34801561038a57600080fd5b506103a560048036038101906103a0919061332d565b610daf565b005b6103c160048036038101906103bc9190613433565b610dcf565b005b6103dd60048036038101906103d8919061357f565b610f0c565b005b3480156103eb57600080fd5b506103f4611136565b6040516104019190613c3f565b60405180910390f35b34801561041657600080fd5b50610431600480360381019061042c919061353e565b6111ef565b005b34801561043f57600080fd5b5061045a6004803603810190610455919061357f565b611212565b6040516104679190613b86565b60405180910390f35b34801561047c57600080fd5b50610497600480360381019061049291906132c8565b6112c4565b6040516104a49190614057565b60405180910390f35b3480156104b957600080fd5b506104c261137c565b005b3480156104d057600080fd5b506104d9611390565b005b3480156104e757600080fd5b506104f0611589565b005b3480156104fe57600080fd5b506105076115d1565b6040516105149190613b86565b60405180910390f35b34801561052957600080fd5b50610544600480360381019061053f919061357f565b6115fb565b005b34801561055257600080fd5b5061056d6004803603810190610568919061353e565b61160e565b005b34801561057b57600080fd5b50610596600480360381019061059191906135a8565b611631565b005b3480156105a457600080fd5b506105ad6117aa565b6040516105ba9190613c75565b60405180910390f35b3480156105cf57600080fd5b506105d861183c565b6040516105e59190614057565b60405180910390f35b3480156105fa57600080fd5b50610615600480360381019061061091906133f7565b611843565b005b34801561062357600080fd5b5061063e6004803603810190610639919061357f565b611859565b60405161064b9190613c24565b60405180910390f35b34801561066057600080fd5b5061067b6004803603810190610676919061337c565b61187a565b005b34801561068957600080fd5b506106a4600480360381019061069f919061357f565b6118dc565b6040516106b19190613c75565b60405180910390f35b3480156106c657600080fd5b506106e160048036038101906106dc919061357f565b611984565b005b3480156106ef57600080fd5b506106f8611a76565b6040516107059190613c75565b60405180910390f35b34801561071a57600080fd5b50610735600480360381019061073091906132f1565b611b09565b6040516107429190613c24565b60405180910390f35b34801561075757600080fd5b50610772600480360381019061076d919061357f565b611b9d565b60405161077f9190614057565b60405180910390f35b34801561079457600080fd5b506107af60048036038101906107aa91906132c8565b611bb6565b005b60007f80ac58cd000000000000000000000000000000000000000000000000000000007bffffffffffffffffffffffffffffffffffffffffffffffffffffffff1916827bffffffffffffffffffffffffffffffffffffffffffffffffffffffff1916148061087c57507f5b5e139f000000000000000000000000000000000000000000000000000000007bffffffffffffffffffffffffffffffffffffffffffffffffffffffff1916827bffffffffffffffffffffffffffffffffffffffffffffffffffffffff1916145b8061088c575061088b82611c3a565b5b9050919050565b6060606580546108a29061430a565b80601f01602080910402602001604051908101604052809291908181526020018280546108ce9061430a565b801561091b5780601f106108f05761010080835404028352916020019161091b565b820191906000526020600020905b8154815290600101906020018083116108fe57829003601f168201915b5050505050905090565b600061093082611ca4565b6069600083815260200190815260200160002060009054906101000a900473ffffffffffffffffffffffffffffffffffffffff169050919050565b600061097682611212565b90508073ffffffffffffffffffffffffffffffffffffffff168373ffffffffffffffffffffffffffffffffffffffff1614156109e7576040517f08c379a00000000000000000000000000000000000000000000000000000000081526004016109de90613f97565b60405180910390fd5b8073ffffffffffffffffffffffffffffffffffffffff16610a06611cef565b73ffffffffffffffffffffffffffffffffffffffff161480610a355750610a3481610a2f611cef565b611b09565b5b610a74576040517f08c379a0000000000000000000000000000000000000000000000000000000008152600401610a6b90613ed7565b60405180910390fd5b610a7e8383611cf7565b505050565b61012d54341015610ac9576040517f08c379a0000000000000000000000000000000000000000000000000000000008152600401610ac090613d77565b60405180910390fd5b600a61012e5410610b0f576040517f08c379a0000000000000000000000000000000000000000000000000000000008152600401610b0690614037565b60405180910390fd5b610b1c3361012e54611db0565b61012e6000815480929190610b309061436d565b9190505550610b423361012e54611db0565b61012e6000815480929190610b569061436d565b91905055507feb9f0f1ba03373016475209499baf180b58ed2c9349785a49cb25f1a72ed8f7034604051610b8a9190614057565b60405180910390a1565b61012e5481565b610bac610ba6611cef565b82611dce565b610beb576040517f08c379a0000000000000000000000000000000000000000000000000000000008152600401610be290613ff7565b60405180910390fd5b610bf6838383611e63565b505050565b600a81565b7f000000000000000000000000000000000000000000000000000000000000000073ffffffffffffffffffffffffffffffffffffffff163073ffffffffffffffffffffffffffffffffffffffff161415610c8f576040517f08c379a0000000000000000000000000000000000000000000000000000000008152600401610c8690613d57565b60405180910390fd5b7f000000000000000000000000000000000000000000000000000000000000000073ffffffffffffffffffffffffffffffffffffffff16610cce6120ca565b73ffffffffffffffffffffffffffffffffffffffff1614610d24576040517f08c379a0000000000000000000000000000000000000000000000000000000008152600401610d1b90613dd7565b60405180910390fd5b610d2d81612121565b610dac81600067ffffffffffffffff811115610d72577f4e487b7100000000000000000000000000000000000000000000000000000000600052604160045260246000fd5b6040519080825280601f01601f191660200182016040528015610da45781602001600182028036833780820191505090505b50600061212c565b50565b610dca8383836040518060200160405280600081525061187a565b505050565b7f000000000000000000000000000000000000000000000000000000000000000073ffffffffffffffffffffffffffffffffffffffff163073ffffffffffffffffffffffffffffffffffffffff161415610e5e576040517f08c379a0000000000000000000000000000000000000000000000000000000008152600401610e5590613d57565b60405180910390fd5b7f000000000000000000000000000000000000000000000000000000000000000073ffffffffffffffffffffffffffffffffffffffff16610e9d6120ca565b73ffffffffffffffffffffffffffffffffffffffff1614610ef3576040517f08c379a0000000000000000000000000000000000000000000000000000000008152600401610eea90613dd7565b60405180910390fd5b610efc82612121565b610f088282600161212c565b5050565b3373ffffffffffffffffffffffffffffffffffffffff16610f2c82611212565b73ffffffffffffffffffffffffffffffffffffffff161415610f83576040517f08c379a0000000000000000000000000000000000000000000000000000000008152600401610f7a90613cd7565b60405180910390fd5b6001151561012f600083815260200190815260200160002060009054906101000a900460ff16151514610feb576040517f08c379a0000000000000000000000000000000000000000000000000000000008152600401610fe290613eb7565b60405180910390fd5b610130600082815260200190815260200160002054341015611042576040517f08c379a000000000000000000000000000000000000000000000000000000000815260040161103990613e57565b60405180910390fd5b600061012f600083815260200190815260200160002060006101000a81548160ff021916908315150217905550600061107a82611212565b90503073ffffffffffffffffffffffffffffffffffffffff166342842e0e8233856040518463ffffffff1660e01b81526004016110b993929190613ba1565b600060405180830381600087803b1580156110d357600080fd5b505af11580156110e7573d6000803e3d6000fd5b50505050600061012f600084815260200190815260200160002060006101000a81548160ff02191690831515021790555060006101306000848152602001908152602001600020819055505050565b60007f000000000000000000000000000000000000000000000000000000000000000073ffffffffffffffffffffffffffffffffffffffff163073ffffffffffffffffffffffffffffffffffffffff16146111c6576040517f08c379a00000000000000000000000000000000000000000000000000000000081526004016111bd90613e17565b60405180910390fd5b7f360894a13ba1a3210667c828492db98dca3e2076cc3735a920a3ca505d382bbc60001b905090565b6111f76122a9565b80610131908051906020019061120e9291906130d7565b5050565b6000806067600084815260200190815260200160002060009054906101000a900473ffffffffffffffffffffffffffffffffffffffff169050600073ffffffffffffffffffffffffffffffffffffffff168173ffffffffffffffffffffffffffffffffffffffff1614156112bb576040517f08c379a00000000000000000000000000000000000000000000000000000000081526004016112b290613f77565b60405180910390fd5b80915050919050565b60008073ffffffffffffffffffffffffffffffffffffffff168273ffffffffffffffffffffffffffffffffffffffff161415611335576040517f08c379a000000000000000000000000000000000000000000000000000000000815260040161132c90613e37565b60405180910390fd5b606860008373ffffffffffffffffffffffffffffffffffffffff1673ffffffffffffffffffffffffffffffffffffffff168152602001908152602001600020549050919050565b6113846122a9565b61138e6000612327565b565b60008060019054906101000a900460ff161590508080156113c15750600160008054906101000a900460ff1660ff16105b806113ee57506113d0306123ed565b1580156113ed5750600160008054906101000a900460ff1660ff16145b5b61142d576040517f08c379a000000000000000000000000000000000000000000000000000000000815260040161142490613e97565b60405180910390fd5b60016000806101000a81548160ff021916908360ff160217905550801561146a576001600060016101000a81548160ff0219169083151502179055505b6114de6040518060400160405280600481526020017f5869726f000000000000000000000000000000000000000000000000000000008152506040518060400160405280600481526020017f5849524f00000000000000000000000000000000000000000000000000000000815250612410565b6114e661246d565b6114ee6124c6565b6040518060600160405280603c8152602001614ccb603c9139610132908051906020019061151d9291906130d7565b50662386f26fc1000061012d8190555080156115865760008060016101000a81548160ff0219169083151502179055507f7f26b83ff96e1f2b6a682f133852f6798a09c465da95921460cefb3847402498600160405161157d9190613c5a565b60405180910390a15b50565b6115916122a9565b3373ffffffffffffffffffffffffffffffffffffffff166108fc479081150290604051600060405180830381858888f193505050506115cf57600080fd5b565b6000609760009054906101000a900473ffffffffffffffffffffffffffffffffffffffff16905090565b6116036122a9565b8061012d8190555050565b6116166122a9565b80610132908051906020019061162d9291906130d7565b5050565b3373ffffffffffffffffffffffffffffffffffffffff1661165183611212565b73ffffffffffffffffffffffffffffffffffffffff161461167157600080fd5b6000151561012f600084815260200190815260200160002060009054906101000a900460ff161515146116d9576040517f08c379a00000000000000000000000000000000000000000000000000000000081526004016116d090614017565b60405180910390fd5b6000811161171c576040517f08c379a000000000000000000000000000000000000000000000000000000000815260040161171390613df7565b60405180910390fd5b80610130600084815260200190815260200160002081905550600161012f600084815260200190815260200160002060006101000a81548160ff02191690831515021790555061176d306001611843565b7fde57715d65e04855358632222c7686d8def16af3f595dcca5f1cc76473f55806828260405161179e929190614072565b60405180910390a15050565b6060606680546117b99061430a565b80601f01602080910402602001604051908101604052809291908181526020018280546117e59061430a565b80156118325780601f1061180757610100808354040283529160200191611832565b820191906000526020600020905b81548152906001019060200180831161181557829003601f168201915b5050505050905090565b61012d5481565b61185561184e611cef565b8383612517565b5050565b61012f6020528060005260406000206000915054906101000a900460ff1681565b61188b611885611cef565b83611dce565b6118ca576040517f08c379a00000000000000000000000000000000000000000000000000000000081526004016118c190613ff7565b60405180910390fd5b6118d684848484612684565b50505050565b60606118e7826126e0565b611926576040517f08c379a000000000000000000000000000000000000000000000000000000000815260040161191d90613c97565b60405180910390fd5b600061193061274c565b9050600081511415611951576040518060200160405280600081525061197c565b8061195b846127df565b60405160200161196c929190613b57565b6040516020818303038152906040525b915050919050565b3373ffffffffffffffffffffffffffffffffffffffff166119a482611212565b73ffffffffffffffffffffffffffffffffffffffff16146119c457600080fd5b6001151561012f600083815260200190815260200160002060009054906101000a900460ff16151514611a2c576040517f08c379a0000000000000000000000000000000000000000000000000000000008152600401611a2390613eb7565b60405180910390fd5b600061012f600083815260200190815260200160002060006101000a81548160ff021916908315150217905550600061013060008381526020019081526020016000208190555050565b60606101328054611a869061430a565b80601f0160208091040260200160405190810160405280929190818152602001828054611ab29061430a565b8015611aff5780601f10611ad457610100808354040283529160200191611aff565b820191906000526020600020905b815481529060010190602001808311611ae257829003601f168201915b5050505050905090565b6000606a60008473ffffffffffffffffffffffffffffffffffffffff1673ffffffffffffffffffffffffffffffffffffffff16815260200190815260200160002060008373ffffffffffffffffffffffffffffffffffffffff1673ffffffffffffffffffffffffffffffffffffffff16815260200190815260200160002060009054906101000a900460ff16905092915050565b6101306020528060005260406000206000915090505481565b611bbe6122a9565b600073ffffffffffffffffffffffffffffffffffffffff168173ffffffffffffffffffffffffffffffffffffffff161415611c2e576040517f08c379a0000000000000000000000000000000000000000000000000000000008152600401611c2590613cf7565b60405180910390fd5b611c3781612327565b50565b60007f01ffc9a7000000000000000000000000000000000000000000000000000000007bffffffffffffffffffffffffffffffffffffffffffffffffffffffff1916827bffffffffffffffffffffffffffffffffffffffffffffffffffffffff1916149050919050565b611cad816126e0565b611cec576040517f08c379a0000000000000000000000000000000000000000000000000000000008152600401611ce390613f77565b60405180910390fd5b50565b600033905090565b816069600083815260200190815260200160002060006101000a81548173ffffffffffffffffffffffffffffffffffffffff021916908373ffffffffffffffffffffffffffffffffffffffff160217905550808273ffffffffffffffffffffffffffffffffffffffff16611d6a83611212565b73ffffffffffffffffffffffffffffffffffffffff167f8c5be1e5ebec7d5bd14f71427d1e84f3dd0314c0f7b2291e5b200ac8c7c3b92560405160405180910390a45050565b611dca82826040518060200160405280600081525061298c565b5050565b600080611dda83611212565b90508073ffffffffffffffffffffffffffffffffffffffff168473ffffffffffffffffffffffffffffffffffffffff161480611e1c5750611e1b8185611b09565b5b80611e5a57508373ffffffffffffffffffffffffffffffffffffffff16611e4284610925565b73ffffffffffffffffffffffffffffffffffffffff16145b91505092915050565b8273ffffffffffffffffffffffffffffffffffffffff16611e8382611212565b73ffffffffffffffffffffffffffffffffffffffff1614611ed9576040517f08c379a0000000000000000000000000000000000000000000000000000000008152600401611ed090613d17565b60405180910390fd5b600073ffffffffffffffffffffffffffffffffffffffff168273ffffffffffffffffffffffffffffffffffffffff161415611f49576040517f08c379a0000000000000000000000000000000000000000000000000000000008152600401611f4090613d97565b60405180910390fd5b611f548383836129e7565b611f5f600082611cf7565b6001606860008573ffffffffffffffffffffffffffffffffffffffff1673ffffffffffffffffffffffffffffffffffffffff1681526020019081526020016000206000828254611faf91906141f7565b925050819055506001606860008473ffffffffffffffffffffffffffffffffffffffff1673ffffffffffffffffffffffffffffffffffffffff16815260200190815260200160002060008282546120069190614170565b92505081905550816067600083815260200190815260200160002060006101000a81548173ffffffffffffffffffffffffffffffffffffffff021916908373ffffffffffffffffffffffffffffffffffffffff160217905550808273ffffffffffffffffffffffffffffffffffffffff168473ffffffffffffffffffffffffffffffffffffffff167fddf252ad1be2c89b69c2b068fc378daa952ba7f163c4a11628f55a4df523b3ef60405160405180910390a46120c58383836129ec565b505050565b60006120f87f360894a13ba1a3210667c828492db98dca3e2076cc3735a920a3ca505d382bbc60001b6129f1565b60000160009054906101000a900473ffffffffffffffffffffffffffffffffffffffff16905090565b6121296122a9565b50565b6121587f4910fdfa16fed3260ed0e7147f7cc6da11a60208b5b9406d12a635614ffd914360001b6129fb565b60000160009054906101000a900460ff161561217c5761217783612a05565b6122a4565b8273ffffffffffffffffffffffffffffffffffffffff166352d1902d6040518163ffffffff1660e01b815260040160206040518083038186803b1580156121c257600080fd5b505afa9250505080156121f357506040513d601f19601f820116820180604052508101906121f091906134c3565b60015b612232576040517f08c379a000000000000000000000000000000000000000000000000000000000815260040161222990613f17565b60405180910390fd5b7f360894a13ba1a3210667c828492db98dca3e2076cc3735a920a3ca505d382bbc60001b8114612297576040517f08c379a000000000000000000000000000000000000000000000000000000000815260040161228e90613e77565b60405180910390fd5b506122a3838383612abe565b5b505050565b6122b1611cef565b73ffffffffffffffffffffffffffffffffffffffff166122cf6115d1565b73ffffffffffffffffffffffffffffffffffffffff1614612325576040517f08c379a000000000000000000000000000000000000000000000000000000000815260040161231c90613f57565b60405180910390fd5b565b6000609760009054906101000a900473ffffffffffffffffffffffffffffffffffffffff16905081609760006101000a81548173ffffffffffffffffffffffffffffffffffffffff021916908373ffffffffffffffffffffffffffffffffffffffff1602179055508173ffffffffffffffffffffffffffffffffffffffff168173ffffffffffffffffffffffffffffffffffffffff167f8be0079c531659141344cd1fd0a4f28419497f9722a3daafe3b4186f6b6457e060405160405180910390a35050565b6000808273ffffffffffffffffffffffffffffffffffffffff163b119050919050565b600060019054906101000a900460ff1661245f576040517f08c379a000000000000000000000000000000000000000000000000000000000815260040161245690613fd7565b60405180910390fd5b6124698282612aea565b5050565b600060019054906101000a900460ff166124bc576040517f08c379a00000000000000000000000000000000000000000000000000000000081526004016124b390613fd7565b60405180910390fd5b6124c4612b6b565b565b600060019054906101000a900460ff16612515576040517f08c379a000000000000000000000000000000000000000000000000000000000815260040161250c90613fd7565b60405180910390fd5b565b8173ffffffffffffffffffffffffffffffffffffffff168373ffffffffffffffffffffffffffffffffffffffff161415612586576040517f08c379a000000000000000000000000000000000000000000000000000000000815260040161257d90613db7565b60405180910390fd5b80606a60008573ffffffffffffffffffffffffffffffffffffffff1673ffffffffffffffffffffffffffffffffffffffff16815260200190815260200160002060008473ffffffffffffffffffffffffffffffffffffffff1673ffffffffffffffffffffffffffffffffffffffff16815260200190815260200160002060006101000a81548160ff0219169083151502179055508173ffffffffffffffffffffffffffffffffffffffff168373ffffffffffffffffffffffffffffffffffffffff167f17307eab39ab6107e8899845ad3d59bd9653f200f220920489ca2b5937696c31836040516126779190613c24565b60405180910390a3505050565b61268f848484611e63565b61269b84848484612bcc565b6126da576040517f08c379a00000000000000000000000000000000000000000000000000000000081526004016126d190613cb7565b60405180910390fd5b50505050565b60008073ffffffffffffffffffffffffffffffffffffffff166067600084815260200190815260200160002060009054906101000a900473ffffffffffffffffffffffffffffffffffffffff1673ffffffffffffffffffffffffffffffffffffffff1614159050919050565b6060610131805461275c9061430a565b80601f01602080910402602001604051908101604052809291908181526020018280546127889061430a565b80156127d55780601f106127aa576101008083540402835291602001916127d5565b820191906000526020600020905b8154815290600101906020018083116127b857829003601f168201915b5050505050905090565b60606000821415612827576040518060400160405280600181526020017f30000000000000000000000000000000000000000000000000000000000000008152509050612987565b600082905060005b600082146128595780806128429061436d565b915050600a8261285291906141c6565b915061282f565b60008167ffffffffffffffff81111561289b577f4e487b7100000000000000000000000000000000000000000000000000000000600052604160045260246000fd5b6040519080825280601f01601f1916602001820160405280156128cd5781602001600182028036833780820191505090505b5090505b60008514612980576001826128e691906141f7565b9150600a856128f591906143b6565b60306129019190614170565b60f81b81838151811061293d577f4e487b7100000000000000000000000000000000000000000000000000000000600052603260045260246000fd5b60200101907effffffffffffffffffffffffffffffffffffffffffffffffffffffffffffff1916908160001a905350600a8561297991906141c6565b94506128d1565b8093505050505b919050565b6129968383612d63565b6129a36000848484612bcc565b6129e2576040517f08c379a00000000000000000000000000000000000000000000000000000000081526004016129d990613cb7565b60405180910390fd5b505050565b505050565b505050565b6000819050919050565b6000819050919050565b612a0e816123ed565b612a4d576040517f08c379a0000000000000000000000000000000000000000000000000000000008152600401612a4490613f37565b60405180910390fd5b80612a7a7f360894a13ba1a3210667c828492db98dca3e2076cc3735a920a3ca505d382bbc60001b6129f1565b60000160006101000a81548173ffffffffffffffffffffffffffffffffffffffff021916908373ffffffffffffffffffffffffffffffffffffffff16021790555050565b612ac783612f3d565b600082511180612ad45750805b15612ae557612ae38383612f8c565b505b505050565b600060019054906101000a900460ff16612b39576040517f08c379a0000000000000000000000000000000000000000000000000000000008152600401612b3090613fd7565b60405180910390fd5b8160659080519060200190612b4f9291906130d7565b508060669080519060200190612b669291906130d7565b505050565b600060019054906101000a900460ff16612bba576040517f08c379a0000000000000000000000000000000000000000000000000000000008152600401612bb190613fd7565b60405180910390fd5b612bca612bc5611cef565b612327565b565b6000612bed8473ffffffffffffffffffffffffffffffffffffffff166123ed565b15612d56578373ffffffffffffffffffffffffffffffffffffffff1663150b7a02612c16611cef565b8786866040518563ffffffff1660e01b8152600401612c389493929190613bd8565b602060405180830381600087803b158015612c5257600080fd5b505af1925050508015612c8357506040513d601f19601f82011682018060405250810190612c809190613515565b60015b612d06573d8060008114612cb3576040519150601f19603f3d011682016040523d82523d6000602084013e612cb8565b606091505b50600081511415612cfe576040517f08c379a0000000000000000000000000000000000000000000000000000000008152600401612cf590613cb7565b60405180910390fd5b805181602001fd5b63150b7a0260e01b7bffffffffffffffffffffffffffffffffffffffffffffffffffffffff1916817bffffffffffffffffffffffffffffffffffffffffffffffffffffffff191614915050612d5b565b600190505b949350505050565b600073ffffffffffffffffffffffffffffffffffffffff168273ffffffffffffffffffffffffffffffffffffffff161415612dd3576040517f08c379a0000000000000000000000000000000000000000000000000000000008152600401612dca90613ef7565b60405180910390fd5b612ddc816126e0565b15612e1c576040517f08c379a0000000000000000000000000000000000000000000000000000000008152600401612e1390613d37565b60405180910390fd5b612e28600083836129e7565b6001606860008473ffffffffffffffffffffffffffffffffffffffff1673ffffffffffffffffffffffffffffffffffffffff1681526020019081526020016000206000828254612e789190614170565b92505081905550816067600083815260200190815260200160002060006101000a81548173ffffffffffffffffffffffffffffffffffffffff021916908373ffffffffffffffffffffffffffffffffffffffff160217905550808273ffffffffffffffffffffffffffffffffffffffff16600073ffffffffffffffffffffffffffffffffffffffff167fddf252ad1be2c89b69c2b068fc378daa952ba7f163c4a11628f55a4df523b3ef60405160405180910390a4612f39600083836129ec565b5050565b612f4681612a05565b8073ffffffffffffffffffffffffffffffffffffffff167fbc7cd75a20ee27fd9adebab32041f755214dbc6bffa90cc0225b39da2e5c2d3b60405160405180910390a250565b6060612f97836123ed565b612fd6576040517f08c379a0000000000000000000000000000000000000000000000000000000008152600401612fcd90613fb7565b60405180910390fd5b6000808473ffffffffffffffffffffffffffffffffffffffff1684604051612ffe9190613b40565b600060405180830381855af49150503d8060008114613039576040519150601f19603f3d011682016040523d82523d6000602084013e61303e565b606091505b50915091506130668282604051806060016040528060278152602001614d0760279139613070565b9250505092915050565b60608315613080578290506130d0565b6000835111156130935782518084602001fd5b816040517f08c379a00000000000000000000000000000000000000000000000000000000081526004016130c79190613c75565b60405180910390fd5b9392505050565b8280546130e39061430a565b90600052602060002090601f016020900481019282613105576000855561314c565b82601f1061311e57805160ff191683800117855561314c565b8280016001018555821561314c579182015b8281111561314b578251825591602001919060010190613130565b5b509050613159919061315d565b5090565b5b8082111561317657600081600090555060010161315e565b5090565b600061318d613188846140c0565b61409b565b9050828152602081018484840111156131a557600080fd5b6131b08482856142c8565b509392505050565b60006131cb6131c6846140f1565b61409b565b9050828152602081018484840111156131e357600080fd5b6131ee8482856142c8565b509392505050565b60008135905061320581614c57565b92915050565b60008135905061321a81614c6e565b92915050565b60008151905061322f81614c85565b92915050565b60008135905061324481614c9c565b92915050565b60008151905061325981614c9c565b92915050565b600082601f83011261327057600080fd5b813561328084826020860161317a565b91505092915050565b600082601f83011261329a57600080fd5b81356132aa8482602086016131b8565b91505092915050565b6000813590506132c281614cb3565b92915050565b6000602082840312156132da57600080fd5b60006132e8848285016131f6565b91505092915050565b6000806040838503121561330457600080fd5b6000613312858286016131f6565b9250506020613323858286016131f6565b9150509250929050565b60008060006060848603121561334257600080fd5b6000613350868287016131f6565b9350506020613361868287016131f6565b9250506040613372868287016132b3565b9150509250925092565b6000806000806080858703121561339257600080fd5b60006133a0878288016131f6565b94505060206133b1878288016131f6565b93505060406133c2878288016132b3565b925050606085013567ffffffffffffffff8111156133df57600080fd5b6133eb8782880161325f565b91505092959194509250565b6000806040838503121561340a57600080fd5b6000613418858286016131f6565b92505060206134298582860161320b565b9150509250929050565b6000806040838503121561344657600080fd5b6000613454858286016131f6565b925050602083013567ffffffffffffffff81111561347157600080fd5b61347d8582860161325f565b9150509250929050565b6000806040838503121561349a57600080fd5b60006134a8858286016131f6565b92505060206134b9858286016132b3565b9150509250929050565b6000602082840312156134d557600080fd5b60006134e384828501613220565b91505092915050565b6000602082840312156134fe57600080fd5b600061350c84828501613235565b91505092915050565b60006020828403121561352757600080fd5b60006135358482850161324a565b91505092915050565b60006020828403121561355057600080fd5b600082013567ffffffffffffffff81111561356a57600080fd5b61357684828501613289565b91505092915050565b60006020828403121561359157600080fd5b600061359f848285016132b3565b91505092915050565b600080604083850312156135bb57600080fd5b60006135c9858286016132b3565b92505060206135da858286016132b3565b9150509250929050565b6135ed8161422b565b82525050565b6135fc8161423d565b82525050565b61360b81614249565b82525050565b600061361c82614122565b6136268185614138565b93506136368185602086016142d7565b61363f816144a3565b840191505092915050565b600061365582614122565b61365f8185614149565b935061366f8185602086016142d7565b80840191505092915050565b613684816142b6565b82525050565b60006136958261412d565b61369f8185614154565b93506136af8185602086016142d7565b6136b8816144a3565b840191505092915050565b60006136ce8261412d565b6136d88185614165565b93506136e88185602086016142d7565b80840191505092915050565b6000613701601f83614154565b915061370c826144b4565b602082019050919050565b6000613724603283614154565b915061372f826144dd565b604082019050919050565b6000613747601983614154565b91506137528261452c565b602082019050919050565b600061376a602683614154565b915061377582614555565b604082019050919050565b600061378d602583614154565b9150613798826145a4565b604082019050919050565b60006137b0601c83614154565b91506137bb826145f3565b602082019050919050565b60006137d3602c83614154565b91506137de8261461c565b604082019050919050565b60006137f6601d83614154565b91506138018261466b565b602082019050919050565b6000613819602483614154565b915061382482614694565b604082019050919050565b600061383c601983614154565b9150613847826146e3565b602082019050919050565b600061385f602c83614154565b915061386a8261470c565b604082019050919050565b6000613882601683614154565b915061388d8261475b565b602082019050919050565b60006138a5603883614154565b91506138b082614784565b604082019050919050565b60006138c8602983614154565b91506138d3826147d3565b604082019050919050565b60006138eb602583614154565b91506138f682614822565b604082019050919050565b600061390e602983614154565b915061391982614871565b604082019050919050565b6000613931602e83614154565b915061393c826148c0565b604082019050919050565b6000613954601583614154565b915061395f8261490f565b602082019050919050565b6000613977603e83614154565b915061398282614938565b604082019050919050565b600061399a602083614154565b91506139a582614987565b602082019050919050565b60006139bd602e83614154565b91506139c8826149b0565b604082019050919050565b60006139e0600583614165565b91506139eb826149ff565b600582019050919050565b6000613a03602d83614154565b9150613a0e82614a28565b604082019050919050565b6000613a26602083614154565b9150613a3182614a77565b602082019050919050565b6000613a49601883614154565b9150613a5482614aa0565b602082019050919050565b6000613a6c602183614154565b9150613a7782614ac9565b604082019050919050565b6000613a8f602683614154565b9150613a9a82614b18565b604082019050919050565b6000613ab2602b83614154565b9150613abd82614b67565b604082019050919050565b6000613ad5602e83614154565b9150613ae082614bb6565b604082019050919050565b6000613af8601a83614154565b9150613b0382614c05565b602082019050919050565b6000613b1b600983614154565b9150613b2682614c2e565b602082019050919050565b613b3a8161429f565b82525050565b6000613b4c828461364a565b915081905092915050565b6000613b6382856136c3565b9150613b6f82846136c3565b9150613b7a826139d3565b91508190509392505050565b6000602082019050613b9b60008301846135e4565b92915050565b6000606082019050613bb660008301866135e4565b613bc360208301856135e4565b613bd06040830184613b31565b949350505050565b6000608082019050613bed60008301876135e4565b613bfa60208301866135e4565b613c076040830185613b31565b8181036060830152613c198184613611565b905095945050505050565b6000602082019050613c3960008301846135f3565b92915050565b6000602082019050613c546000830184613602565b92915050565b6000602082019050613c6f600083018461367b565b92915050565b60006020820190508181036000830152613c8f818461368a565b905092915050565b60006020820190508181036000830152613cb0816136f4565b9050919050565b60006020820190508181036000830152613cd081613717565b9050919050565b60006020820190508181036000830152613cf08161373a565b9050919050565b60006020820190508181036000830152613d108161375d565b9050919050565b60006020820190508181036000830152613d3081613780565b9050919050565b60006020820190508181036000830152613d50816137a3565b9050919050565b60006020820190508181036000830152613d70816137c6565b9050919050565b60006020820190508181036000830152613d90816137e9565b9050919050565b60006020820190508181036000830152613db08161380c565b9050919050565b60006020820190508181036000830152613dd08161382f565b9050919050565b60006020820190508181036000830152613df081613852565b9050919050565b60006020820190508181036000830152613e1081613875565b9050919050565b60006020820190508181036000830152613e3081613898565b9050919050565b60006020820190508181036000830152613e50816138bb565b9050919050565b60006020820190508181036000830152613e70816138de565b9050919050565b60006020820190508181036000830152613e9081613901565b9050919050565b60006020820190508181036000830152613eb081613924565b9050919050565b60006020820190508181036000830152613ed081613947565b9050919050565b60006020820190508181036000830152613ef08161396a565b9050919050565b60006020820190508181036000830152613f108161398d565b9050919050565b60006020820190508181036000830152613f30816139b0565b9050919050565b60006020820190508181036000830152613f50816139f6565b9050919050565b60006020820190508181036000830152613f7081613a19565b9050919050565b60006020820190508181036000830152613f9081613a3c565b9050919050565b60006020820190508181036000830152613fb081613a5f565b9050919050565b60006020820190508181036000830152613fd081613a82565b9050919050565b60006020820190508181036000830152613ff081613aa5565b9050919050565b6000602082019050818103600083015261401081613ac8565b9050919050565b6000602082019050818103600083015261403081613aeb565b9050919050565b6000602082019050818103600083015261405081613b0e565b9050919050565b600060208201905061406c6000830184613b31565b92915050565b60006040820190506140876000830185613b31565b6140946020830184613b31565b9392505050565b60006140a56140b6565b90506140b1828261433c565b919050565b6000604051905090565b600067ffffffffffffffff8211156140db576140da614474565b5b6140e4826144a3565b9050602081019050919050565b600067ffffffffffffffff82111561410c5761410b614474565b5b614115826144a3565b9050602081019050919050565b600081519050919050565b600081519050919050565b600082825260208201905092915050565b600081905092915050565b600082825260208201905092915050565b600081905092915050565b600061417b8261429f565b91506141868361429f565b9250827fffffffffffffffffffffffffffffffffffffffffffffffffffffffffffffffff038211156141bb576141ba6143e7565b5b828201905092915050565b60006141d18261429f565b91506141dc8361429f565b9250826141ec576141eb614416565b5b828204905092915050565b60006142028261429f565b915061420d8361429f565b9250828210156142205761421f6143e7565b5b828203905092915050565b60006142368261427f565b9050919050565b60008115159050919050565b6000819050919050565b60007fffffffff0000000000000000000000000000000000000000000000000000000082169050919050565b600073ffffffffffffffffffffffffffffffffffffffff82169050919050565b6000819050919050565b600060ff82169050919050565b60006142c1826142a9565b9050919050565b82818337600083830152505050565b60005b838110156142f55780820151818401526020810190506142da565b83811115614304576000848401525b50505050565b6000600282049050600182168061432257607f821691505b6020821081141561433657614335614445565b5b50919050565b614345826144a3565b810181811067ffffffffffffffff8211171561436457614363614474565b5b80604052505050565b60006143788261429f565b91507fffffffffffffffffffffffffffffffffffffffffffffffffffffffffffffffff8214156143ab576143aa6143e7565b5b600182019050919050565b60006143c18261429f565b91506143cc8361429f565b9250826143dc576143db614416565b5b828206905092915050565b7f4e487b7100000000000000000000000000000000000000000000000000000000600052601160045260246000fd5b7f4e487b7100000000000000000000000000000000000000000000000000000000600052601260045260246000fd5b7f4e487b7100000000000000000000000000000000000000000000000000000000600052602260045260246000fd5b7f4e487b7100000000000000000000000000000000000000000000000000000000600052604160045260246000fd5b6000601f19601f8301169050919050565b7f55524920717565727920666f72206e6f6e6578697374656e7420746f6b656e00600082015250565b7f4552433732313a207472616e7366657220746f206e6f6e20455243373231526560008201527f63656976657220696d706c656d656e7465720000000000000000000000000000602082015250565b7f596f7520616c7265616479206f776e2074686973204e46542e00000000000000600082015250565b7f4f776e61626c653a206e6577206f776e657220697320746865207a65726f206160008201527f6464726573730000000000000000000000000000000000000000000000000000602082015250565b7f4552433732313a207472616e736665722066726f6d20696e636f72726563742060008201527f6f776e6572000000000000000000000000000000000000000000000000000000602082015250565b7f4552433732313a20746f6b656e20616c7265616479206d696e74656400000000600082015250565b7f46756e6374696f6e206d7573742062652063616c6c6564207468726f7567682060008201527f64656c656761746563616c6c0000000000000000000000000000000000000000602082015250565b7f45746865722073656e74206973206e6f742073756666696369656e742e000000600082015250565b7f4552433732313a207472616e7366657220746f20746865207a65726f2061646460008201527f7265737300000000000000000000000000000000000000000000000000000000602082015250565b7f4552433732313a20617070726f766520746f2063616c6c657200000000000000600082015250565b7f46756e6374696f6e206d7573742062652063616c6c6564207468726f7567682060008201527f6163746976652070726f78790000000000000000000000000000000000000000602082015250565b7f53616c652070726963652063616e277420626520302e00000000000000000000600082015250565b7f555550535570677261646561626c653a206d757374206e6f742062652063616c60008201527f6c6564207468726f7567682064656c656761746563616c6c0000000000000000602082015250565b7f4552433732313a2061646472657373207a65726f206973206e6f74206120766160008201527f6c6964206f776e65720000000000000000000000000000000000000000000000602082015250565b7f416d6f756e7420706169642063616e2774206265206c657373207468616e207060008201527f726963652e000000000000000000000000000000000000000000000000000000602082015250565b7f45524331393637557067726164653a20756e737570706f727465642070726f7860008201527f6961626c65555549440000000000000000000000000000000000000000000000602082015250565b7f496e697469616c697a61626c653a20636f6e747261637420697320616c72656160008201527f647920696e697469616c697a6564000000000000000000000000000000000000602082015250565b7f546865204e46542069736e2774206c69737465642e0000000000000000000000600082015250565b7f4552433732313a20617070726f76652063616c6c6572206973206e6f7420746f60008201527f6b656e206f776e6572206e6f7220617070726f76656420666f7220616c6c0000602082015250565b7f4552433732313a206d696e7420746f20746865207a65726f2061646472657373600082015250565b7f45524331393637557067726164653a206e657720696d706c656d656e7461746960008201527f6f6e206973206e6f742055555053000000000000000000000000000000000000602082015250565b7f2e6a736f6e000000000000000000000000000000000000000000000000000000600082015250565b7f455243313936373a206e657720696d706c656d656e746174696f6e206973206e60008201527f6f74206120636f6e747261637400000000000000000000000000000000000000602082015250565b7f4f776e61626c653a2063616c6c6572206973206e6f7420746865206f776e6572600082015250565b7f4552433732313a20696e76616c696420746f6b656e2049440000000000000000600082015250565b7f4552433732313a20617070726f76616c20746f2063757272656e74206f776e6560008201527f7200000000000000000000000000000000000000000000000000000000000000602082015250565b7f416464726573733a2064656c65676174652063616c6c20746f206e6f6e2d636f60008201527f6e74726163740000000000000000000000000000000000000000000000000000602082015250565b7f496e697469616c697a61626c653a20636f6e7472616374206973206e6f74206960008201527f6e697469616c697a696e67000000000000000000000000000000000000000000602082015250565b7f4552433732313a2063616c6c6572206973206e6f7420746f6b656e206f776e6560008201527f72206e6f7220617070726f766564000000000000000000000000000000000000602082015250565b7f546865204e465420697320616c7265616479206c69737465642e000000000000600082015250565b7f536f6c64206f7574210000000000000000000000000000000000000000000000600082015250565b614c608161422b565b8114614c6b57600080fd5b50565b614c778161423d565b8114614c8257600080fd5b50565b614c8e81614249565b8114614c9957600080fd5b50565b614ca581614253565b8114614cb057600080fd5b50565b614cbc8161429f565b8114614cc757600080fd5b5056fe697066733a2f2f516d4e4c7a4531314b7a3558667a7452566831776f53346247363178374d466b423235434b4653537475366e415a2f302e6a736f6e416464726573733a206c6f772d6c6576656c2064656c65676174652063616c6c206661696c6564a26469706673582212201b71f9c22ade90a6abd57624e0c5217ecee9bd82cce2c0f958f3d721d6f6686a64736f6c63430008040033",
  "linkReferences": {},
  "deployedLinkReferences": {}
}