{
  "_format": "hh-sol-artifact-1",
  "contractName": "XiroNFT",
  "sourceName": "contracts/XiroNFT.sol",
  "abi": [
    {
      "anonymous": false,
      "inputs": [
        {
          "indexed": false,
          "internalType": "address",
          "name": "previousAdmin",
          "type": "address"
        },
        {
          "indexed": false,
          "internalType": "address",
          "name": "newAdmin",
          "type": "address"
        }
      ],
      "name": "AdminChanged",
      "type": "event"
    },
    {
      "anonymous": false,
      "inputs": [
        {
          "indexed": true,
          "internalType": "address",
          "name": "owner",
          "type": "address"
        },
        {
          "indexed": true,
          "internalType": "address",
          "name": "approved",
          "type": "address"
        },
        {
          "indexed": true,
          "internalType": "uint256",
          "name": "tokenId",
          "type": "uint256"
        }
      ],
      "name": "Approval",
      "type": "event"
    },
    {
      "anonymous": false,
      "inputs": [
        {
          "indexed": true,
          "internalType": "address",
          "name": "owner",
          "type": "address"
        },
        {
          "indexed": true,
          "internalType": "address",
          "name": "operator",
          "type": "address"
        },
        {
          "indexed": false,
          "internalType": "bool",
          "name": "approved",
          "type": "bool"
        }
      ],
      "name": "ApprovalForAll",
      "type": "event"
    },
    {
      "anonymous": false,
      "inputs": [
        {
          "indexed": true,
          "internalType": "address",
          "name": "beacon",
          "type": "address"
        }
      ],
      "name": "BeaconUpgraded",
      "type": "event"
    },
    {
      "anonymous": false,
      "inputs": [
        {
          "indexed": false,
          "internalType": "uint8",
          "name": "version",
          "type": "uint8"
        }
      ],
      "name": "Initialized",
      "type": "event"
    },
    {
      "anonymous": false,
      "inputs": [
        {
          "indexed": false,
          "internalType": "uint256",
          "name": "val",
          "type": "uint256"
        }
      ],
      "name": "MsgVal",
      "type": "event"
    },
    {
      "anonymous": false,
      "inputs": [
        {
          "indexed": false,
          "internalType": "uint256",
          "name": "tokenId",
          "type": "uint256"
        },
        {
          "indexed": false,
          "internalType": "uint256",
          "name": "salePrice",
          "type": "uint256"
        }
      ],
      "name": "NftListed",
      "type": "event"
    },
    {
      "anonymous": false,
      "inputs": [
        {
          "indexed": true,
          "internalType": "address",
          "name": "previousOwner",
          "type": "address"
        },
        {
          "indexed": true,
          "internalType": "address",
          "name": "newOwner",
          "type": "address"
        }
      ],
      "name": "OwnershipTransferred",
      "type": "event"
    },
    {
      "anonymous": false,
      "inputs": [
        {
          "indexed": true,
          "internalType": "address",
          "name": "from",
          "type": "address"
        },
        {
          "indexed": true,
          "internalType": "address",
          "name": "to",
          "type": "address"
        },
        {
          "indexed": true,
          "internalType": "uint256",
          "name": "tokenId",
          "type": "uint256"
        }
      ],
      "name": "Transfer",
      "type": "event"
    },
    {
      "anonymous": false,
      "inputs": [
        {
          "indexed": true,
          "internalType": "address",
          "name": "implementation",
          "type": "address"
        }
      ],
      "name": "Upgraded",
      "type": "event"
    },
    {
      "inputs": [],
      "name": "MAX_SUPPLY",
      "outputs": [
        {
          "internalType": "uint256",
          "name": "",
          "type": "uint256"
        }
      ],
      "stateMutability": "view",
      "type": "function"
    },
    {
      "inputs": [
        {
          "internalType": "address",
          "name": "to",
          "type": "address"
        },
        {
          "internalType": "uint256",
          "name": "tokenId",
          "type": "uint256"
        }
      ],
      "name": "approve",
      "outputs": [],
      "stateMutability": "nonpayable",
      "type": "function"
    },
    {
      "inputs": [
        {
          "internalType": "address",
          "name": "owner",
          "type": "address"
        }
      ],
      "name": "balanceOf",
      "outputs": [
        {
          "internalType": "uint256",
          "name": "",
          "type": "uint256"
        }
      ],
      "stateMutability": "view",
      "type": "function"
    },
    {
      "inputs": [
        {
          "internalType": "uint256",
          "name": "_tokenId",
          "type": "uint256"
        }
      ],
      "name": "buyNFT",
      "outputs": [],
      "stateMutability": "payable",
      "type": "function"
    },
    {
      "inputs": [],
      "name": "contractURI",
      "outputs": [
        {
          "internalType": "string",
          "name": "",
          "type": "string"
        }
      ],
      "stateMutability": "view",
      "type": "function"
    },
    {
      "inputs": [
        {
          "internalType": "uint256",
          "name": "_tokenId",
          "type": "uint256"
        }
      ],
      "name": "delistNFT",
      "outputs": [],
      "stateMutability": "nonpayable",
      "type": "function"
    },
    {
      "inputs": [
        {
          "internalType": "uint256",
          "name": "tokenId",
          "type": "uint256"
        }
      ],
      "name": "getApproved",
      "outputs": [
        {
          "internalType": "address",
          "name": "",
          "type": "address"
        }
      ],
      "stateMutability": "view",
      "type": "function"
    },
    {
      "inputs": [],
      "name": "initialize",
      "outputs": [],
      "stateMutability": "nonpayable",
      "type": "function"
    },
    {
      "inputs": [
        {
          "internalType": "address",
          "name": "owner",
          "type": "address"
        },
        {
          "internalType": "address",
          "name": "operator",
          "type": "address"
        }
      ],
      "name": "isApprovedForAll",
      "outputs": [
        {
          "internalType": "bool",
          "name": "",
          "type": "bool"
        }
      ],
      "stateMutability": "view",
      "type": "function"
    },
    {
      "inputs": [
        {
          "internalType": "uint256",
          "name": "_tokenId",
          "type": "uint256"
        },
        {
          "internalType": "uint256",
          "name": "_salePrice",
          "type": "uint256"
        }
      ],
      "name": "listNFT",
      "outputs": [],
      "stateMutability": "nonpayable",
      "type": "function"
    },
    {
      "inputs": [],
      "name": "mint",
      "outputs": [],
      "stateMutability": "payable",
      "type": "function"
    },
    {
      "inputs": [],
      "name": "name",
      "outputs": [
        {
          "internalType": "string",
          "name": "",
          "type": "string"
        }
      ],
      "stateMutability": "view",
      "type": "function"
    },
    {
      "inputs": [
        {
          "internalType": "uint256",
          "name": "",
          "type": "uint256"
        }
      ],
      "name": "onSale",
      "outputs": [
        {
          "internalType": "bool",
          "name": "",
          "type": "bool"
        }
      ],
      "stateMutability": "view",
      "type": "function"
    },
    {
      "inputs": [],
      "name": "owner",
      "outputs": [
        {
          "internalType": "address",
          "name": "",
          "type": "address"
        }
      ],
      "stateMutability": "view",
      "type": "function"
    },
    {
      "inputs": [
        {
          "internalType": "uint256",
          "name": "tokenId",
          "type": "uint256"
        }
      ],
      "name": "ownerOf",
      "outputs": [
        {
          "internalType": "address",
          "name": "",
          "type": "address"
        }
      ],
      "stateMutability": "view",
      "type": "function"
    },
    {
      "inputs": [],
      "name": "price",
      "outputs": [
        {
          "internalType": "uint256",
          "name": "",
          "type": "uint256"
        }
      ],
      "stateMutability": "view",
      "type": "function"
    },
    {
      "inputs": [],
      "name": "proxiableUUID",
      "outputs": [
        {
          "internalType": "bytes32",
          "name": "",
          "type": "bytes32"
        }
      ],
      "stateMutability": "view",
      "type": "function"
    },
    {
      "inputs": [],
      "name": "renounceOwnership",
      "outputs": [],
      "stateMutability": "nonpayable",
      "type": "function"
    },
    {
      "inputs": [
        {
          "internalType": "address",
          "name": "from",
          "type": "address"
        },
        {
          "internalType": "address",
          "name": "to",
          "type": "address"
        },
        {
          "internalType": "uint256",
          "name": "tokenId",
          "type": "uint256"
        }
      ],
      "name": "safeTransferFrom",
      "outputs": [],
      "stateMutability": "nonpayable",
      "type": "function"
    },
    {
      "inputs": [
        {
          "internalType": "address",
          "name": "from",
          "type": "address"
        },
        {
          "internalType": "address",
          "name": "to",
          "type": "address"
        },
        {
          "internalType": "uint256",
          "name": "tokenId",
          "type": "uint256"
        },
        {
          "internalType": "bytes",
          "name": "data",
          "type": "bytes"
        }
      ],
      "name": "safeTransferFrom",
      "outputs": [],
      "stateMutability": "nonpayable",
      "type": "function"
    },
    {
      "inputs": [
        {
          "internalType": "uint256",
          "name": "",
          "type": "uint256"
        }
      ],
      "name": "salePrice",
      "outputs": [
        {
          "internalType": "uint256",
          "name": "",
          "type": "uint256"
        }
      ],
      "stateMutability": "view",
      "type": "function"
    },
    {
      "inputs": [
        {
          "internalType": "address",
          "name": "operator",
          "type": "address"
        },
        {
          "internalType": "bool",
          "name": "approved",
          "type": "bool"
        }
      ],
      "name": "setApprovalForAll",
      "outputs": [],
      "stateMutability": "nonpayable",
      "type": "function"
    },
    {
      "inputs": [
        {
          "internalType": "string",
          "name": "newBaseURI",
          "type": "string"
        }
      ],
      "name": "setBaseURI",
      "outputs": [],
      "stateMutability": "nonpayable",
      "type": "function"
    },
    {
      "inputs": [
        {
          "internalType": "string",
          "name": "newContractURI",
          "type": "string"
        }
      ],
      "name": "setContractURI",
      "outputs": [],
      "stateMutability": "nonpayable",
      "type": "function"
    },
    {
      "inputs": [
        {
          "internalType": "uint256",
          "name": "newPrice",
          "type": "uint256"
        }
      ],
      "name": "setPrice",
      "outputs": [],
      "stateMutability": "nonpayable",
      "type": "function"
    },
    {
      "inputs": [
        {
          "internalType": "bytes4",
          "name": "interfaceId",
          "type": "bytes4"
        }
      ],
      "name": "supportsInterface",
      "outputs": [
        {
          "internalType": "bool",
          "name": "",
          "type": "bool"
        }
      ],
      "stateMutability": "view",
      "type": "function"
    },
    {
      "inputs": [],
      "name": "symbol",
      "outputs": [
        {
          "internalType": "string",
          "name": "",
          "type": "string"
        }
      ],
      "stateMutability": "view",
      "type": "function"
    },
    {
      "inputs": [],
      "name": "tokenId",
      "outputs": [
        {
          "internalType": "uint256",
          "name": "",
          "type": "uint256"
        }
      ],
      "stateMutability": "view",
      "type": "function"
    },
    {
      "inputs": [
        {
          "internalType": "uint256",
          "name": "_tokenId",
          "type": "uint256"
        }
      ],
      "name": "tokenURI",
      "outputs": [
        {
          "internalType": "string",
          "name": "",
          "type": "string"
        }
      ],
      "stateMutability": "view",
      "type": "function"
    },
    {
      "inputs": [
        {
          "internalType": "address",
          "name": "from",
          "type": "address"
        },
        {
          "internalType": "address",
          "name": "to",
          "type": "address"
        },
        {
          "internalType": "uint256",
          "name": "tokenId",
          "type": "uint256"
        }
      ],
      "name": "transferFrom",
      "outputs": [],
      "stateMutability": "nonpayable",
      "type": "function"
    },
    {
      "inputs": [
        {
          "internalType": "address",
          "name": "newOwner",
          "type": "address"
        }
      ],
      "name": "transferOwnership",
      "outputs": [],
      "stateMutability": "nonpayable",
      "type": "function"
    },
    {
      "inputs": [
        {
          "internalType": "address",
          "name": "newImplementation",
          "type": "address"
        }
      ],
      "name": "upgradeTo",
      "outputs": [],
      "stateMutability": "nonpayable",
      "type": "function"
    },
    {
      "inputs": [
        {
          "internalType": "address",
          "name": "newImplementation",
          "type": "address"
        },
        {
          "internalType": "bytes",
          "name": "data",
          "type": "bytes"
        }
      ],
      "name": "upgradeToAndCall",
      "outputs": [],
      "stateMutability": "payable",
      "type": "function"
    },
    {
      "inputs": [],
      "name": "withdrawAll",
      "outputs": [],
      "stateMutability": "nonpayable",
      "type": "function"
    }
  ],
  "bytecode": "0x60a06040523073ffffffffffffffffffffffffffffffffffffffff1660809073ffffffffffffffffffffffffffffffffffffffff1660601b81525034801561004657600080fd5b5060805160601c614d3d61008160003960008181610bdc01528181610c6b01528181610dab01528181610e3a01526111140152614d3d6000f3fe6080604052600436106101f95760003560e01c80638129fc1c1161010d578063a22cb465116100a0578063cb917b9c1161006f578063cb917b9c146106ba578063e8a3d485146106e3578063e985e9c51461070e578063edf85f511461074b578063f2fde38b14610788576101f9565b8063a22cb465146105ee578063b43a76f114610617578063b88d4fde14610654578063c87b56dd1461067d576101f9565b8063938e3d7b116100dc578063938e3d7b1461054657806394383f141461056f57806395d89b4114610598578063a035b1fe146105c3576101f9565b80638129fc1c146104c4578063853828b6146104db5780638da5cb5b146104f257806391b7f5ed1461051d576101f9565b80633659cfe61161019057806352d1902d1161015f57806352d1902d146103df57806355f804b31461040a5780636352211e1461043357806370a0823114610470578063715018a6146104ad576101f9565b80633659cfe61461035557806342842e0e1461037e5780634f1ef286146103a757806351ed8288146103c3576101f9565b80631249c58b116101cc5780631249c58b146102cc57806317d70f7c146102d657806323b872dd1461030157806332cb6b0c1461032a576101f9565b806301ffc9a7146101fe57806306fdde031461023b578063081812fc14610266578063095ea7b3146102a3575b600080fd5b34801561020a57600080fd5b50610225600480360381019061022091906134c6565b6107b1565b6040516102329190613bfe565b60405180910390f35b34801561024757600080fd5b50610250610893565b60405161025d9190613c4f565b60405180910390f35b34801561027257600080fd5b5061028d60048036038101906102889190613559565b610925565b60405161029a9190613b60565b60405180910390f35b3480156102af57600080fd5b506102ca60048036038101906102c59190613461565b61096b565b005b6102d4610a83565b005b3480156102e257600080fd5b506102eb610b6e565b6040516102f89190614031565b60405180910390f35b34801561030d57600080fd5b5061032860048036038101906103239190613307565b610b75565b005b34801561033657600080fd5b5061033f610bd5565b60405161034c9190614031565b60405180910390f35b34801561036157600080fd5b5061037c600480360381019061037791906132a2565b610bda565b005b34801561038a57600080fd5b506103a560048036038101906103a09190613307565b610d89565b005b6103c160048036038101906103bc919061340d565b610da9565b005b6103dd60048036038101906103d89190613559565b610ee6565b005b3480156103eb57600080fd5b506103f4611110565b6040516104019190613c19565b60405180910390f35b34801561041657600080fd5b50610431600480360381019061042c9190613518565b6111c9565b005b34801561043f57600080fd5b5061045a60048036038101906104559190613559565b6111ec565b6040516104679190613b60565b60405180910390f35b34801561047c57600080fd5b50610497600480360381019061049291906132a2565b61129e565b6040516104a49190614031565b60405180910390f35b3480156104b957600080fd5b506104c2611356565b005b3480156104d057600080fd5b506104d961136a565b005b3480156104e757600080fd5b506104f0611563565b005b3480156104fe57600080fd5b506105076115ab565b6040516105149190613b60565b60405180910390f35b34801561052957600080fd5b50610544600480360381019061053f9190613559565b6115d5565b005b34801561055257600080fd5b5061056d60048036038101906105689190613518565b6115e8565b005b34801561057b57600080fd5b5061059660048036038101906105919190613582565b61160b565b005b3480156105a457600080fd5b506105ad611784565b6040516105ba9190613c4f565b60405180910390f35b3480156105cf57600080fd5b506105d8611816565b6040516105e59190614031565b60405180910390f35b3480156105fa57600080fd5b50610615600480360381019061061091906133d1565b61181d565b005b34801561062357600080fd5b5061063e60048036038101906106399190613559565b611833565b60405161064b9190613bfe565b60405180910390f35b34801561066057600080fd5b5061067b60048036038101906106769190613356565b611854565b005b34801561068957600080fd5b506106a4600480360381019061069f9190613559565b6118b6565b6040516106b19190613c4f565b60405180910390f35b3480156106c657600080fd5b506106e160048036038101906106dc9190613559565b61195e565b005b3480156106ef57600080fd5b506106f8611a50565b6040516107059190613c4f565b60405180910390f35b34801561071a57600080fd5b50610735600480360381019061073091906132cb565b611ae3565b6040516107429190613bfe565b60405180910390f35b34801561075757600080fd5b50610772600480360381019061076d9190613559565b611b77565b60405161077f9190614031565b60405180910390f35b34801561079457600080fd5b506107af60048036038101906107aa91906132a2565b611b90565b005b60007f80ac58cd000000000000000000000000000000000000000000000000000000007bffffffffffffffffffffffffffffffffffffffffffffffffffffffff1916827bffffffffffffffffffffffffffffffffffffffffffffffffffffffff1916148061087c57507f5b5e139f000000000000000000000000000000000000000000000000000000007bffffffffffffffffffffffffffffffffffffffffffffffffffffffff1916827bffffffffffffffffffffffffffffffffffffffffffffffffffffffff1916145b8061088c575061088b82611c14565b5b9050919050565b6060606580546108a2906142e4565b80601f01602080910402602001604051908101604052809291908181526020018280546108ce906142e4565b801561091b5780601f106108f05761010080835404028352916020019161091b565b820191906000526020600020905b8154815290600101906020018083116108fe57829003601f168201915b5050505050905090565b600061093082611c7e565b6069600083815260200190815260200160002060009054906101000a900473ffffffffffffffffffffffffffffffffffffffff169050919050565b6000610976826111ec565b90508073ffffffffffffffffffffffffffffffffffffffff168373ffffffffffffffffffffffffffffffffffffffff1614156109e7576040517f08c379a00000000000000000000000000000000000000000000000000000000081526004016109de90613f71565b60405180910390fd5b8073ffffffffffffffffffffffffffffffffffffffff16610a06611cc9565b73ffffffffffffffffffffffffffffffffffffffff161480610a355750610a3481610a2f611cc9565b611ae3565b5b610a74576040517f08c379a0000000000000000000000000000000000000000000000000000000008152600401610a6b90613eb1565b60405180910390fd5b610a7e8383611cd1565b505050565b61012d54341015610ac9576040517f08c379a0000000000000000000000000000000000000000000000000000000008152600401610ac090613d51565b60405180910390fd5b600a61012e5410610b0f576040517f08c379a0000000000000000000000000000000000000000000000000000000008152600401610b0690614011565b60405180910390fd5b610b1c3361012e54611d8a565b61012e6000815480929190610b3090614347565b91905055507feb9f0f1ba03373016475209499baf180b58ed2c9349785a49cb25f1a72ed8f7034604051610b649190614031565b60405180910390a1565b61012e5481565b610b86610b80611cc9565b82611da8565b610bc5576040517f08c379a0000000000000000000000000000000000000000000000000000000008152600401610bbc90613fd1565b60405180910390fd5b610bd0838383611e3d565b505050565b600a81565b7f000000000000000000000000000000000000000000000000000000000000000073ffffffffffffffffffffffffffffffffffffffff163073ffffffffffffffffffffffffffffffffffffffff161415610c69576040517f08c379a0000000000000000000000000000000000000000000000000000000008152600401610c6090613d31565b60405180910390fd5b7f000000000000000000000000000000000000000000000000000000000000000073ffffffffffffffffffffffffffffffffffffffff16610ca86120a4565b73ffffffffffffffffffffffffffffffffffffffff1614610cfe576040517f08c379a0000000000000000000000000000000000000000000000000000000008152600401610cf590613db1565b60405180910390fd5b610d07816120fb565b610d8681600067ffffffffffffffff811115610d4c577f4e487b7100000000000000000000000000000000000000000000000000000000600052604160045260246000fd5b6040519080825280601f01601f191660200182016040528015610d7e5781602001600182028036833780820191505090505b506000612106565b50565b610da483838360405180602001604052806000815250611854565b505050565b7f000000000000000000000000000000000000000000000000000000000000000073ffffffffffffffffffffffffffffffffffffffff163073ffffffffffffffffffffffffffffffffffffffff161415610e38576040517f08c379a0000000000000000000000000000000000000000000000000000000008152600401610e2f90613d31565b60405180910390fd5b7f000000000000000000000000000000000000000000000000000000000000000073ffffffffffffffffffffffffffffffffffffffff16610e776120a4565b73ffffffffffffffffffffffffffffffffffffffff1614610ecd576040517f08c379a0000000000000000000000000000000000000000000000000000000008152600401610ec490613db1565b60405180910390fd5b610ed6826120fb565b610ee282826001612106565b5050565b3373ffffffffffffffffffffffffffffffffffffffff16610f06826111ec565b73ffffffffffffffffffffffffffffffffffffffff161415610f5d576040517f08c379a0000000000000000000000000000000000000000000000000000000008152600401610f5490613cb1565b60405180910390fd5b6001151561012f600083815260200190815260200160002060009054906101000a900460ff16151514610fc5576040517f08c379a0000000000000000000000000000000000000000000000000000000008152600401610fbc90613e91565b60405180910390fd5b61013060008281526020019081526020016000205434101561101c576040517f08c379a000000000000000000000000000000000000000000000000000000000815260040161101390613e31565b60405180910390fd5b600061012f600083815260200190815260200160002060006101000a81548160ff0219169083151502179055506000611054826111ec565b90503073ffffffffffffffffffffffffffffffffffffffff166342842e0e8233856040518463ffffffff1660e01b815260040161109393929190613b7b565b600060405180830381600087803b1580156110ad57600080fd5b505af11580156110c1573d6000803e3d6000fd5b50505050600061012f600084815260200190815260200160002060006101000a81548160ff02191690831515021790555060006101306000848152602001908152602001600020819055505050565b60007f000000000000000000000000000000000000000000000000000000000000000073ffffffffffffffffffffffffffffffffffffffff163073ffffffffffffffffffffffffffffffffffffffff16146111a0576040517f08c379a000000000000000000000000000000000000000000000000000000000815260040161119790613df1565b60405180910390fd5b7f360894a13ba1a3210667c828492db98dca3e2076cc3735a920a3ca505d382bbc60001b905090565b6111d1612283565b8061013190805190602001906111e89291906130b1565b5050565b6000806067600084815260200190815260200160002060009054906101000a900473ffffffffffffffffffffffffffffffffffffffff169050600073ffffffffffffffffffffffffffffffffffffffff168173ffffffffffffffffffffffffffffffffffffffff161415611295576040517f08c379a000000000000000000000000000000000000000000000000000000000815260040161128c90613f51565b60405180910390fd5b80915050919050565b60008073ffffffffffffffffffffffffffffffffffffffff168273ffffffffffffffffffffffffffffffffffffffff16141561130f576040517f08c379a000000000000000000000000000000000000000000000000000000000815260040161130690613e11565b60405180910390fd5b606860008373ffffffffffffffffffffffffffffffffffffffff1673ffffffffffffffffffffffffffffffffffffffff168152602001908152602001600020549050919050565b61135e612283565b6113686000612301565b565b60008060019054906101000a900460ff1615905080801561139b5750600160008054906101000a900460ff1660ff16105b806113c857506113aa306123c7565b1580156113c75750600160008054906101000a900460ff1660ff16145b5b611407576040517f08c379a00000000000000000000000000000000000000000000000000000000081526004016113fe90613e71565b60405180910390fd5b60016000806101000a81548160ff021916908360ff1602179055508015611444576001600060016101000a81548160ff0219169083151502179055505b6114b86040518060400160405280600481526020017f5869726f000000000000000000000000000000000000000000000000000000008152506040518060400160405280600481526020017f5849524f000000000000000000000000000000000000000000000000000000008152506123ea565b6114c0612447565b6114c86124a0565b6040518060600160405280603c8152602001614ca5603c913961013290805190602001906114f79291906130b1565b50662386f26fc1000061012d8190555080156115605760008060016101000a81548160ff0219169083151502179055507f7f26b83ff96e1f2b6a682f133852f6798a09c465da95921460cefb384740249860016040516115579190613c34565b60405180910390a15b50565b61156b612283565b3373ffffffffffffffffffffffffffffffffffffffff166108fc479081150290604051600060405180830381858888f193505050506115a957600080fd5b565b6000609760009054906101000a900473ffffffffffffffffffffffffffffffffffffffff16905090565b6115dd612283565b8061012d8190555050565b6115f0612283565b8061013290805190602001906116079291906130b1565b5050565b3373ffffffffffffffffffffffffffffffffffffffff1661162b836111ec565b73ffffffffffffffffffffffffffffffffffffffff161461164b57600080fd5b6000151561012f600084815260200190815260200160002060009054906101000a900460ff161515146116b3576040517f08c379a00000000000000000000000000000000000000000000000000000000081526004016116aa90613ff1565b60405180910390fd5b600081116116f6576040517f08c379a00000000000000000000000000000000000000000000000000000000081526004016116ed90613dd1565b60405180910390fd5b80610130600084815260200190815260200160002081905550600161012f600084815260200190815260200160002060006101000a81548160ff02191690831515021790555061174730600161181d565b7fde57715d65e04855358632222c7686d8def16af3f595dcca5f1cc76473f55806828260405161177892919061404c565b60405180910390a15050565b606060668054611793906142e4565b80601f01602080910402602001604051908101604052809291908181526020018280546117bf906142e4565b801561180c5780601f106117e15761010080835404028352916020019161180c565b820191906000526020600020905b8154815290600101906020018083116117ef57829003601f168201915b5050505050905090565b61012d5481565b61182f611828611cc9565b83836124f1565b5050565b61012f6020528060005260406000206000915054906101000a900460ff1681565b61186561185f611cc9565b83611da8565b6118a4576040517f08c379a000000000000000000000000000000000000000000000000000000000815260040161189b90613fd1565b60405180910390fd5b6118b08484848461265e565b50505050565b60606118c1826126ba565b611900576040517f08c379a00000000000000000000000000000000000000000000000000000000081526004016118f790613c71565b60405180910390fd5b600061190a612726565b905060008151141561192b5760405180602001604052806000815250611956565b80611935846127b9565b604051602001611946929190613b31565b6040516020818303038152906040525b915050919050565b3373ffffffffffffffffffffffffffffffffffffffff1661197e826111ec565b73ffffffffffffffffffffffffffffffffffffffff161461199e57600080fd5b6001151561012f600083815260200190815260200160002060009054906101000a900460ff16151514611a06576040517f08c379a00000000000000000000000000000000000000000000000000000000081526004016119fd90613e91565b60405180910390fd5b600061012f600083815260200190815260200160002060006101000a81548160ff021916908315150217905550600061013060008381526020019081526020016000208190555050565b60606101328054611a60906142e4565b80601f0160208091040260200160405190810160405280929190818152602001828054611a8c906142e4565b8015611ad95780601f10611aae57610100808354040283529160200191611ad9565b820191906000526020600020905b815481529060010190602001808311611abc57829003601f168201915b5050505050905090565b6000606a60008473ffffffffffffffffffffffffffffffffffffffff1673ffffffffffffffffffffffffffffffffffffffff16815260200190815260200160002060008373ffffffffffffffffffffffffffffffffffffffff1673ffffffffffffffffffffffffffffffffffffffff16815260200190815260200160002060009054906101000a900460ff16905092915050565b6101306020528060005260406000206000915090505481565b611b98612283565b600073ffffffffffffffffffffffffffffffffffffffff168173ffffffffffffffffffffffffffffffffffffffff161415611c08576040517f08c379a0000000000000000000000000000000000000000000000000000000008152600401611bff90613cd1565b60405180910390fd5b611c1181612301565b50565b60007f01ffc9a7000000000000000000000000000000000000000000000000000000007bffffffffffffffffffffffffffffffffffffffffffffffffffffffff1916827bffffffffffffffffffffffffffffffffffffffffffffffffffffffff1916149050919050565b611c87816126ba565b611cc6576040517f08c379a0000000000000000000000000000000000000000000000000000000008152600401611cbd90613f51565b60405180910390fd5b50565b600033905090565b816069600083815260200190815260200160002060006101000a81548173ffffffffffffffffffffffffffffffffffffffff021916908373ffffffffffffffffffffffffffffffffffffffff160217905550808273ffffffffffffffffffffffffffffffffffffffff16611d44836111ec565b73ffffffffffffffffffffffffffffffffffffffff167f8c5be1e5ebec7d5bd14f71427d1e84f3dd0314c0f7b2291e5b200ac8c7c3b92560405160405180910390a45050565b611da4828260405180602001604052806000815250612966565b5050565b600080611db4836111ec565b90508073ffffffffffffffffffffffffffffffffffffffff168473ffffffffffffffffffffffffffffffffffffffff161480611df65750611df58185611ae3565b5b80611e3457508373ffffffffffffffffffffffffffffffffffffffff16611e1c84610925565b73ffffffffffffffffffffffffffffffffffffffff16145b91505092915050565b8273ffffffffffffffffffffffffffffffffffffffff16611e5d826111ec565b73ffffffffffffffffffffffffffffffffffffffff1614611eb3576040517f08c379a0000000000000000000000000000000000000000000000000000000008152600401611eaa90613cf1565b60405180910390fd5b600073ffffffffffffffffffffffffffffffffffffffff168273ffffffffffffffffffffffffffffffffffffffff161415611f23576040517f08c379a0000000000000000000000000000000000000000000000000000000008152600401611f1a90613d71565b60405180910390fd5b611f2e8383836129c1565b611f39600082611cd1565b6001606860008573ffffffffffffffffffffffffffffffffffffffff1673ffffffffffffffffffffffffffffffffffffffff1681526020019081526020016000206000828254611f8991906141d1565b925050819055506001606860008473ffffffffffffffffffffffffffffffffffffffff1673ffffffffffffffffffffffffffffffffffffffff1681526020019081526020016000206000828254611fe0919061414a565b92505081905550816067600083815260200190815260200160002060006101000a81548173ffffffffffffffffffffffffffffffffffffffff021916908373ffffffffffffffffffffffffffffffffffffffff160217905550808273ffffffffffffffffffffffffffffffffffffffff168473ffffffffffffffffffffffffffffffffffffffff167fddf252ad1be2c89b69c2b068fc378daa952ba7f163c4a11628f55a4df523b3ef60405160405180910390a461209f8383836129c6565b505050565b60006120d27f360894a13ba1a3210667c828492db98dca3e2076cc3735a920a3ca505d382bbc60001b6129cb565b60000160009054906101000a900473ffffffffffffffffffffffffffffffffffffffff16905090565b612103612283565b50565b6121327f4910fdfa16fed3260ed0e7147f7cc6da11a60208b5b9406d12a635614ffd914360001b6129d5565b60000160009054906101000a900460ff161561215657612151836129df565b61227e565b8273ffffffffffffffffffffffffffffffffffffffff166352d1902d6040518163ffffffff1660e01b815260040160206040518083038186803b15801561219c57600080fd5b505afa9250505080156121cd57506040513d601f19601f820116820180604052508101906121ca919061349d565b60015b61220c576040517f08c379a000000000000000000000000000000000000000000000000000000000815260040161220390613ef1565b60405180910390fd5b7f360894a13ba1a3210667c828492db98dca3e2076cc3735a920a3ca505d382bbc60001b8114612271576040517f08c379a000000000000000000000000000000000000000000000000000000000815260040161226890613e51565b60405180910390fd5b5061227d838383612a98565b5b505050565b61228b611cc9565b73ffffffffffffffffffffffffffffffffffffffff166122a96115ab565b73ffffffffffffffffffffffffffffffffffffffff16146122ff576040517f08c379a00000000000000000000000000000000000000000000000000000000081526004016122f690613f31565b60405180910390fd5b565b6000609760009054906101000a900473ffffffffffffffffffffffffffffffffffffffff16905081609760006101000a81548173ffffffffffffffffffffffffffffffffffffffff021916908373ffffffffffffffffffffffffffffffffffffffff1602179055508173ffffffffffffffffffffffffffffffffffffffff168173ffffffffffffffffffffffffffffffffffffffff167f8be0079c531659141344cd1fd0a4f28419497f9722a3daafe3b4186f6b6457e060405160405180910390a35050565b6000808273ffffffffffffffffffffffffffffffffffffffff163b119050919050565b600060019054906101000a900460ff16612439576040517f08c379a000000000000000000000000000000000000000000000000000000000815260040161243090613fb1565b60405180910390fd5b6124438282612ac4565b5050565b600060019054906101000a900460ff16612496576040517f08c379a000000000000000000000000000000000000000000000000000000000815260040161248d90613fb1565b60405180910390fd5b61249e612b45565b565b600060019054906101000a900460ff166124ef576040517f08c379a00000000000000000000000000000000000000000000000000000000081526004016124e690613fb1565b60405180910390fd5b565b8173ffffffffffffffffffffffffffffffffffffffff168373ffffffffffffffffffffffffffffffffffffffff161415612560576040517f08c379a000000000000000000000000000000000000000000000000000000000815260040161255790613d91565b60405180910390fd5b80606a60008573ffffffffffffffffffffffffffffffffffffffff1673ffffffffffffffffffffffffffffffffffffffff16815260200190815260200160002060008473ffffffffffffffffffffffffffffffffffffffff1673ffffffffffffffffffffffffffffffffffffffff16815260200190815260200160002060006101000a81548160ff0219169083151502179055508173ffffffffffffffffffffffffffffffffffffffff168373ffffffffffffffffffffffffffffffffffffffff167f17307eab39ab6107e8899845ad3d59bd9653f200f220920489ca2b5937696c31836040516126519190613bfe565b60405180910390a3505050565b612669848484611e3d565b61267584848484612ba6565b6126b4576040517f08c379a00000000000000000000000000000000000000000000000000000000081526004016126ab90613c91565b60405180910390fd5b50505050565b60008073ffffffffffffffffffffffffffffffffffffffff166067600084815260200190815260200160002060009054906101000a900473ffffffffffffffffffffffffffffffffffffffff1673ffffffffffffffffffffffffffffffffffffffff1614159050919050565b60606101318054612736906142e4565b80601f0160208091040260200160405190810160405280929190818152602001828054612762906142e4565b80156127af5780601f10612784576101008083540402835291602001916127af565b820191906000526020600020905b81548152906001019060200180831161279257829003601f168201915b5050505050905090565b60606000821415612801576040518060400160405280600181526020017f30000000000000000000000000000000000000000000000000000000000000008152509050612961565b600082905060005b6000821461283357808061281c90614347565b915050600a8261282c91906141a0565b9150612809565b60008167ffffffffffffffff811115612875577f4e487b7100000000000000000000000000000000000000000000000000000000600052604160045260246000fd5b6040519080825280601f01601f1916602001820160405280156128a75781602001600182028036833780820191505090505b5090505b6000851461295a576001826128c091906141d1565b9150600a856128cf9190614390565b60306128db919061414a565b60f81b818381518110612917577f4e487b7100000000000000000000000000000000000000000000000000000000600052603260045260246000fd5b60200101907effffffffffffffffffffffffffffffffffffffffffffffffffffffffffffff1916908160001a905350600a8561295391906141a0565b94506128ab565b8093505050505b919050565b6129708383612d3d565b61297d6000848484612ba6565b6129bc576040517f08c379a00000000000000000000000000000000000000000000000000000000081526004016129b390613c91565b60405180910390fd5b505050565b505050565b505050565b6000819050919050565b6000819050919050565b6129e8816123c7565b612a27576040517f08c379a0000000000000000000000000000000000000000000000000000000008152600401612a1e90613f11565b60405180910390fd5b80612a547f360894a13ba1a3210667c828492db98dca3e2076cc3735a920a3ca505d382bbc60001b6129cb565b60000160006101000a81548173ffffffffffffffffffffffffffffffffffffffff021916908373ffffffffffffffffffffffffffffffffffffffff16021790555050565b612aa183612f17565b600082511180612aae5750805b15612abf57612abd8383612f66565b505b505050565b600060019054906101000a900460ff16612b13576040517f08c379a0000000000000000000000000000000000000000000000000000000008152600401612b0a90613fb1565b60405180910390fd5b8160659080519060200190612b299291906130b1565b508060669080519060200190612b409291906130b1565b505050565b600060019054906101000a900460ff16612b94576040517f08c379a0000000000000000000000000000000000000000000000000000000008152600401612b8b90613fb1565b60405180910390fd5b612ba4612b9f611cc9565b612301565b565b6000612bc78473ffffffffffffffffffffffffffffffffffffffff166123c7565b15612d30578373ffffffffffffffffffffffffffffffffffffffff1663150b7a02612bf0611cc9565b8786866040518563ffffffff1660e01b8152600401612c129493929190613bb2565b602060405180830381600087803b158015612c2c57600080fd5b505af1925050508015612c5d57506040513d601f19601f82011682018060405250810190612c5a91906134ef565b60015b612ce0573d8060008114612c8d576040519150601f19603f3d011682016040523d82523d6000602084013e612c92565b606091505b50600081511415612cd8576040517f08c379a0000000000000000000000000000000000000000000000000000000008152600401612ccf90613c91565b60405180910390fd5b805181602001fd5b63150b7a0260e01b7bffffffffffffffffffffffffffffffffffffffffffffffffffffffff1916817bffffffffffffffffffffffffffffffffffffffffffffffffffffffff191614915050612d35565b600190505b949350505050565b600073ffffffffffffffffffffffffffffffffffffffff168273ffffffffffffffffffffffffffffffffffffffff161415612dad576040517f08c379a0000000000000000000000000000000000000000000000000000000008152600401612da490613ed1565b60405180910390fd5b612db6816126ba565b15612df6576040517f08c379a0000000000000000000000000000000000000000000000000000000008152600401612ded90613d11565b60405180910390fd5b612e02600083836129c1565b6001606860008473ffffffffffffffffffffffffffffffffffffffff1673ffffffffffffffffffffffffffffffffffffffff1681526020019081526020016000206000828254612e52919061414a565b92505081905550816067600083815260200190815260200160002060006101000a81548173ffffffffffffffffffffffffffffffffffffffff021916908373ffffffffffffffffffffffffffffffffffffffff160217905550808273ffffffffffffffffffffffffffffffffffffffff16600073ffffffffffffffffffffffffffffffffffffffff167fddf252ad1be2c89b69c2b068fc378daa952ba7f163c4a11628f55a4df523b3ef60405160405180910390a4612f13600083836129c6565b5050565b612f20816129df565b8073ffffffffffffffffffffffffffffffffffffffff167fbc7cd75a20ee27fd9adebab32041f755214dbc6bffa90cc0225b39da2e5c2d3b60405160405180910390a250565b6060612f71836123c7565b612fb0576040517f08c379a0000000000000000000000000000000000000000000000000000000008152600401612fa790613f91565b60405180910390fd5b6000808473ffffffffffffffffffffffffffffffffffffffff1684604051612fd89190613b1a565b600060405180830381855af49150503d8060008114613013576040519150601f19603f3d011682016040523d82523d6000602084013e613018565b606091505b50915091506130408282604051806060016040528060278152602001614ce16027913961304a565b9250505092915050565b6060831561305a578290506130aa565b60008351111561306d5782518084602001fd5b816040517f08c379a00000000000000000000000000000000000000000000000000000000081526004016130a19190613c4f565b60405180910390fd5b9392505050565b8280546130bd906142e4565b90600052602060002090601f0160209004810192826130df5760008555613126565b82601f106130f857805160ff1916838001178555613126565b82800160010185558215613126579182015b8281111561312557825182559160200191906001019061310a565b5b5090506131339190613137565b5090565b5b80821115613150576000816000905550600101613138565b5090565b60006131676131628461409a565b614075565b90508281526020810184848401111561317f57600080fd5b61318a8482856142a2565b509392505050565b60006131a56131a0846140cb565b614075565b9050828152602081018484840111156131bd57600080fd5b6131c88482856142a2565b509392505050565b6000813590506131df81614c31565b92915050565b6000813590506131f481614c48565b92915050565b60008151905061320981614c5f565b92915050565b60008135905061321e81614c76565b92915050565b60008151905061323381614c76565b92915050565b600082601f83011261324a57600080fd5b813561325a848260208601613154565b91505092915050565b600082601f83011261327457600080fd5b8135613284848260208601613192565b91505092915050565b60008135905061329c81614c8d565b92915050565b6000602082840312156132b457600080fd5b60006132c2848285016131d0565b91505092915050565b600080604083850312156132de57600080fd5b60006132ec858286016131d0565b92505060206132fd858286016131d0565b9150509250929050565b60008060006060848603121561331c57600080fd5b600061332a868287016131d0565b935050602061333b868287016131d0565b925050604061334c8682870161328d565b9150509250925092565b6000806000806080858703121561336c57600080fd5b600061337a878288016131d0565b945050602061338b878288016131d0565b935050604061339c8782880161328d565b925050606085013567ffffffffffffffff8111156133b957600080fd5b6133c587828801613239565b91505092959194509250565b600080604083850312156133e457600080fd5b60006133f2858286016131d0565b9250506020613403858286016131e5565b9150509250929050565b6000806040838503121561342057600080fd5b600061342e858286016131d0565b925050602083013567ffffffffffffffff81111561344b57600080fd5b61345785828601613239565b9150509250929050565b6000806040838503121561347457600080fd5b6000613482858286016131d0565b92505060206134938582860161328d565b9150509250929050565b6000602082840312156134af57600080fd5b60006134bd848285016131fa565b91505092915050565b6000602082840312156134d857600080fd5b60006134e68482850161320f565b91505092915050565b60006020828403121561350157600080fd5b600061350f84828501613224565b91505092915050565b60006020828403121561352a57600080fd5b600082013567ffffffffffffffff81111561354457600080fd5b61355084828501613263565b91505092915050565b60006020828403121561356b57600080fd5b60006135798482850161328d565b91505092915050565b6000806040838503121561359557600080fd5b60006135a38582860161328d565b92505060206135b48582860161328d565b9150509250929050565b6135c781614205565b82525050565b6135d681614217565b82525050565b6135e581614223565b82525050565b60006135f6826140fc565b6136008185614112565b93506136108185602086016142b1565b6136198161447d565b840191505092915050565b600061362f826140fc565b6136398185614123565b93506136498185602086016142b1565b80840191505092915050565b61365e81614290565b82525050565b600061366f82614107565b613679818561412e565b93506136898185602086016142b1565b6136928161447d565b840191505092915050565b60006136a882614107565b6136b2818561413f565b93506136c28185602086016142b1565b80840191505092915050565b60006136db601f8361412e565b91506136e68261448e565b602082019050919050565b60006136fe60328361412e565b9150613709826144b7565b604082019050919050565b600061372160198361412e565b915061372c82614506565b602082019050919050565b600061374460268361412e565b915061374f8261452f565b604082019050919050565b600061376760258361412e565b91506137728261457e565b604082019050919050565b600061378a601c8361412e565b9150613795826145cd565b602082019050919050565b60006137ad602c8361412e565b91506137b8826145f6565b604082019050919050565b60006137d0601d8361412e565b91506137db82614645565b602082019050919050565b60006137f360248361412e565b91506137fe8261466e565b604082019050919050565b600061381660198361412e565b9150613821826146bd565b602082019050919050565b6000613839602c8361412e565b9150613844826146e6565b604082019050919050565b600061385c60168361412e565b915061386782614735565b602082019050919050565b600061387f60388361412e565b915061388a8261475e565b604082019050919050565b60006138a260298361412e565b91506138ad826147ad565b604082019050919050565b60006138c560258361412e565b91506138d0826147fc565b604082019050919050565b60006138e860298361412e565b91506138f38261484b565b604082019050919050565b600061390b602e8361412e565b91506139168261489a565b604082019050919050565b600061392e60158361412e565b9150613939826148e9565b602082019050919050565b6000613951603e8361412e565b915061395c82614912565b604082019050919050565b600061397460208361412e565b915061397f82614961565b602082019050919050565b6000613997602e8361412e565b91506139a28261498a565b604082019050919050565b60006139ba60058361413f565b91506139c5826149d9565b600582019050919050565b60006139dd602d8361412e565b91506139e882614a02565b604082019050919050565b6000613a0060208361412e565b9150613a0b82614a51565b602082019050919050565b6000613a2360188361412e565b9150613a2e82614a7a565b602082019050919050565b6000613a4660218361412e565b9150613a5182614aa3565b604082019050919050565b6000613a6960268361412e565b9150613a7482614af2565b604082019050919050565b6000613a8c602b8361412e565b9150613a9782614b41565b604082019050919050565b6000613aaf602e8361412e565b9150613aba82614b90565b604082019050919050565b6000613ad2601a8361412e565b9150613add82614bdf565b602082019050919050565b6000613af560098361412e565b9150613b0082614c08565b602082019050919050565b613b1481614279565b82525050565b6000613b268284613624565b915081905092915050565b6000613b3d828561369d565b9150613b49828461369d565b9150613b54826139ad565b91508190509392505050565b6000602082019050613b7560008301846135be565b92915050565b6000606082019050613b9060008301866135be565b613b9d60208301856135be565b613baa6040830184613b0b565b949350505050565b6000608082019050613bc760008301876135be565b613bd460208301866135be565b613be16040830185613b0b565b8181036060830152613bf381846135eb565b905095945050505050565b6000602082019050613c1360008301846135cd565b92915050565b6000602082019050613c2e60008301846135dc565b92915050565b6000602082019050613c496000830184613655565b92915050565b60006020820190508181036000830152613c698184613664565b905092915050565b60006020820190508181036000830152613c8a816136ce565b9050919050565b60006020820190508181036000830152613caa816136f1565b9050919050565b60006020820190508181036000830152613cca81613714565b9050919050565b60006020820190508181036000830152613cea81613737565b9050919050565b60006020820190508181036000830152613d0a8161375a565b9050919050565b60006020820190508181036000830152613d2a8161377d565b9050919050565b60006020820190508181036000830152613d4a816137a0565b9050919050565b60006020820190508181036000830152613d6a816137c3565b9050919050565b60006020820190508181036000830152613d8a816137e6565b9050919050565b60006020820190508181036000830152613daa81613809565b9050919050565b60006020820190508181036000830152613dca8161382c565b9050919050565b60006020820190508181036000830152613dea8161384f565b9050919050565b60006020820190508181036000830152613e0a81613872565b9050919050565b60006020820190508181036000830152613e2a81613895565b9050919050565b60006020820190508181036000830152613e4a816138b8565b9050919050565b60006020820190508181036000830152613e6a816138db565b9050919050565b60006020820190508181036000830152613e8a816138fe565b9050919050565b60006020820190508181036000830152613eaa81613921565b9050919050565b60006020820190508181036000830152613eca81613944565b9050919050565b60006020820190508181036000830152613eea81613967565b9050919050565b60006020820190508181036000830152613f0a8161398a565b9050919050565b60006020820190508181036000830152613f2a816139d0565b9050919050565b60006020820190508181036000830152613f4a816139f3565b9050919050565b60006020820190508181036000830152613f6a81613a16565b9050919050565b60006020820190508181036000830152613f8a81613a39565b9050919050565b60006020820190508181036000830152613faa81613a5c565b9050919050565b60006020820190508181036000830152613fca81613a7f565b9050919050565b60006020820190508181036000830152613fea81613aa2565b9050919050565b6000602082019050818103600083015261400a81613ac5565b9050919050565b6000602082019050818103600083015261402a81613ae8565b9050919050565b60006020820190506140466000830184613b0b565b92915050565b60006040820190506140616000830185613b0b565b61406e6020830184613b0b565b9392505050565b600061407f614090565b905061408b8282614316565b919050565b6000604051905090565b600067ffffffffffffffff8211156140b5576140b461444e565b5b6140be8261447d565b9050602081019050919050565b600067ffffffffffffffff8211156140e6576140e561444e565b5b6140ef8261447d565b9050602081019050919050565b600081519050919050565b600081519050919050565b600082825260208201905092915050565b600081905092915050565b600082825260208201905092915050565b600081905092915050565b600061415582614279565b915061416083614279565b9250827fffffffffffffffffffffffffffffffffffffffffffffffffffffffffffffffff03821115614195576141946143c1565b5b828201905092915050565b60006141ab82614279565b91506141b683614279565b9250826141c6576141c56143f0565b5b828204905092915050565b60006141dc82614279565b91506141e783614279565b9250828210156141fa576141f96143c1565b5b828203905092915050565b600061421082614259565b9050919050565b60008115159050919050565b6000819050919050565b60007fffffffff0000000000000000000000000000000000000000000000000000000082169050919050565b600073ffffffffffffffffffffffffffffffffffffffff82169050919050565b6000819050919050565b600060ff82169050919050565b600061429b82614283565b9050919050565b82818337600083830152505050565b60005b838110156142cf5780820151818401526020810190506142b4565b838111156142de576000848401525b50505050565b600060028204905060018216806142fc57607f821691505b602082108114156143105761430f61441f565b5b50919050565b61431f8261447d565b810181811067ffffffffffffffff8211171561433e5761433d61444e565b5b80604052505050565b600061435282614279565b91507fffffffffffffffffffffffffffffffffffffffffffffffffffffffffffffffff821415614385576143846143c1565b5b600182019050919050565b600061439b82614279565b91506143a683614279565b9250826143b6576143b56143f0565b5b828206905092915050565b7f4e487b7100000000000000000000000000000000000000000000000000000000600052601160045260246000fd5b7f4e487b7100000000000000000000000000000000000000000000000000000000600052601260045260246000fd5b7f4e487b7100000000000000000000000000000000000000000000000000000000600052602260045260246000fd5b7f4e487b7100000000000000000000000000000000000000000000000000000000600052604160045260246000fd5b6000601f19601f8301169050919050565b7f55524920717565727920666f72206e6f6e6578697374656e7420746f6b656e00600082015250565b7f4552433732313a207472616e7366657220746f206e6f6e20455243373231526560008201527f63656976657220696d706c656d656e7465720000000000000000000000000000602082015250565b7f596f7520616c7265616479206f776e2074686973204e46542e00000000000000600082015250565b7f4f776e61626c653a206e6577206f776e657220697320746865207a65726f206160008201527f6464726573730000000000000000000000000000000000000000000000000000602082015250565b7f4552433732313a207472616e736665722066726f6d20696e636f72726563742060008201527f6f776e6572000000000000000000000000000000000000000000000000000000602082015250565b7f4552433732313a20746f6b656e20616c7265616479206d696e74656400000000600082015250565b7f46756e6374696f6e206d7573742062652063616c6c6564207468726f7567682060008201527f64656c656761746563616c6c0000000000000000000000000000000000000000602082015250565b7f45746865722073656e74206973206e6f742073756666696369656e742e000000600082015250565b7f4552433732313a207472616e7366657220746f20746865207a65726f2061646460008201527f7265737300000000000000000000000000000000000000000000000000000000602082015250565b7f4552433732313a20617070726f766520746f2063616c6c657200000000000000600082015250565b7f46756e6374696f6e206d7573742062652063616c6c6564207468726f7567682060008201527f6163746976652070726f78790000000000000000000000000000000000000000602082015250565b7f53616c652070726963652063616e277420626520302e00000000000000000000600082015250565b7f555550535570677261646561626c653a206d757374206e6f742062652063616c60008201527f6c6564207468726f7567682064656c656761746563616c6c0000000000000000602082015250565b7f4552433732313a2061646472657373207a65726f206973206e6f74206120766160008201527f6c6964206f776e65720000000000000000000000000000000000000000000000602082015250565b7f416d6f756e7420706169642063616e2774206265206c657373207468616e207060008201527f726963652e000000000000000000000000000000000000000000000000000000602082015250565b7f45524331393637557067726164653a20756e737570706f727465642070726f7860008201527f6961626c65555549440000000000000000000000000000000000000000000000602082015250565b7f496e697469616c697a61626c653a20636f6e747261637420697320616c72656160008201527f647920696e697469616c697a6564000000000000000000000000000000000000602082015250565b7f546865204e46542069736e2774206c69737465642e0000000000000000000000600082015250565b7f4552433732313a20617070726f76652063616c6c6572206973206e6f7420746f60008201527f6b656e206f776e6572206e6f7220617070726f76656420666f7220616c6c0000602082015250565b7f4552433732313a206d696e7420746f20746865207a65726f2061646472657373600082015250565b7f45524331393637557067726164653a206e657720696d706c656d656e7461746960008201527f6f6e206973206e6f742055555053000000000000000000000000000000000000602082015250565b7f2e6a736f6e000000000000000000000000000000000000000000000000000000600082015250565b7f455243313936373a206e657720696d706c656d656e746174696f6e206973206e60008201527f6f74206120636f6e747261637400000000000000000000000000000000000000602082015250565b7f4f776e61626c653a2063616c6c6572206973206e6f7420746865206f776e6572600082015250565b7f4552433732313a20696e76616c696420746f6b656e2049440000000000000000600082015250565b7f4552433732313a20617070726f76616c20746f2063757272656e74206f776e6560008201527f7200000000000000000000000000000000000000000000000000000000000000602082015250565b7f416464726573733a2064656c65676174652063616c6c20746f206e6f6e2d636f60008201527f6e74726163740000000000000000000000000000000000000000000000000000602082015250565b7f496e697469616c697a61626c653a20636f6e7472616374206973206e6f74206960008201527f6e697469616c697a696e67000000000000000000000000000000000000000000602082015250565b7f4552433732313a2063616c6c6572206973206e6f7420746f6b656e206f776e6560008201527f72206e6f7220617070726f766564000000000000000000000000000000000000602082015250565b7f546865204e465420697320616c7265616479206c69737465642e000000000000600082015250565b7f536f6c64206f7574210000000000000000000000000000000000000000000000600082015250565b614c3a81614205565b8114614c4557600080fd5b50565b614c5181614217565b8114614c5c57600080fd5b50565b614c6881614223565b8114614c7357600080fd5b50565b614c7f8161422d565b8114614c8a57600080fd5b50565b614c9681614279565b8114614ca157600080fd5b5056fe697066733a2f2f516d4e4c7a4531314b7a3558667a7452566831776f53346247363178374d466b423235434b4653537475366e415a2f302e6a736f6e416464726573733a206c6f772d6c6576656c2064656c65676174652063616c6c206661696c6564a26469706673582212208a70a97e28bac02db482f002cc51d6c4f72b17efb82b2f319b6f5f834e59398164736f6c63430008040033",
  "linkReferences": {},
  "deployedLinkReferences": {}
}